:10000000CDC2E7C2E6C2E5C2E4C2E3C2E2C2E1C2D7
:10001000E0C2DFC2DEC2DDC2DCC2DBC240C4D9C284
:10002000D8C2D7C2D6C2D5C2D4C2D3C2D2C2D1C21C
:10003000D0C2CFC2A0A1A1A07F09A51CA010A0A0E2
:10004000021A0111B12C0D0E02160318A00B0A089A
:1000500007060413A009151914120517A0A6A40D6C
:100060000A0F0CA0A01D7FA0A0C0BFBE00BDBCBBDE
:10007000BAB9B8B7A8A9AAAB00C1ADACA0A1A1A05C
:100080001B09A55C7F503B2F205A4151A02C4D4E9F
:1000900042564358A04B4A4847464453A0495559F5
:1000A00054524557A0A6A40D0A4F4C2E7E5D5B2DE1
:1000B0003A3039384037363534333231A8A9AAAB13
:1000C00000C1ADACA0A1A1A01B09A57C7F502B3F16
:1000D000205A4151B23C4D4E42564358A04B4A48DB
:1000E00047464453A049555954524557A0A6A40D1C
:1000F0000A4F4C3E7E7D7B3D2A30292860272625ED
:1001000024232221A8A9AAAB00C1ADACA08081A064
:100110001B09825C7F703B2F207A6171A02C6D6E71
:1001200062766378A06B6A6867666473A0697579A4
:1001300074726577A0A6A40D0A6F6C2E7E5D5B2D90
:100140003A3039384037363534333231A8A9AAAB82
:1001500000C1ADACA4A1A1A0A01BA515A010A05CDE
:10016000201A0111A05B0D0E02160318A00B0A083D
:1001700007060413A009151914120517A0A0A00D55
:10018000A60F0C5DA0A0B15FA0C07D7B7F605EBBB1
:10019000BAB97E7CA8A9AAAB00C1ADACA4A1A1A0AC
:1001A000A01BA515A0503B2F205A4151A02C4D4E0D
:1001B00042564358A04B4A4847464453A0495559D4
:1001C00054524557A0A0A00DA64F4C2EA0A0A02D84
:1001D0003A3039380837363534333231A8A9AAAB2A
:1001E00000C1ADACA4A1A1A0A01BA515A0402B3FB0
:1001F000205A4151A03C4D5E42564358A04B4A48BC
:1002000047464453A049555954524557A0A0A00D04
:10021000A64F4C3EA0A0B23D2AA02928082726259B
:1002200024232221A8A9AAAB00C1ADACA4A1A1A0FE
:10023000A01BA515A0502B3F205A4151A03C4D4E6C
:1002400042564358A04B4A4847464453A049555943
:1002500054524557A0A0A00D404F4C3EA0A0B23D27
:100260002A4029280827262524232221A8A9AAAB29
:1002700000C1ADACA4A1A1A0A01BA5157F703B2F10
:10028000207A6171A02C6D6E62766378A06B6A68CB
:1002900067666473A069757974726577A0A0A00D14
:1002A0005E6F6C2EA0A0A02D3A3039380837363555
:1002B00034333231A8A9AAAB00C1ADACA5A2011359
:1002C000040607080A0B0C0B0A7FB1A5A4A11A1893
:1002D0000316020E0D0C0E0FA180A0A01B0102033D
:1002E000040506070809000D1E1B1C1DB209111785
:1002F0000512141915090F10000D0A8CA8A9AAAB34
:1003000000C1ADACB3978120939A8E8B2D372A38DC
:100310002F39A0A0343135323633A0A0302E2BA097
:10032000A0A0A0A0A5A24153444647484A4B4C3B3D
:100330003A5FA6A5A4A15A584356424E4D3C3E3FB3
:10034000A180A0A01B212223242526272829203D87
:100350007E5B5C5DB20951574552545955494F5027
:10036000600D0A8CA8A9AAAB00C1ADACB3978120DF
:10037000939A8E8B2D372A382F39A0A034313532FD
:100380003633A0A0302E2BA0A0A0A0A0A5A2415340
:10039000444647484A4B4C3B3A7FA6A5A4A15A582D
:1003A0004356424E4D2C2E2FA180A0A01B3132333C
:1003B000343536373839302D5E5B5C5DB2095157C4
:1003C0004552545955494F50400D0A8CA8A9AAAB23
:1003D00000C1ADACB3978120939A8E8B2D372A380C
:1003E0002F39A0A0343135323633A0A0302E2BA0C7
:1003F000A0A0A0A0A5A26173646667686A6B6C3B4D
:100400003A7FA6A5A4A17A786376626E6D2C2E2F12
:10041000A180A0A01B313233343536373839302D26
:100420005E5B5C5DB20971776572747975696F7036
:10043000400D0A8CA8A9AAAB00C1ADACB39781202E
:10044000939A8E8B2D372A382F39A0A0343135322C
:100450003633A0A0302E2BA0A0A0A0A01B0313A574
:1004600009A4A1203111011A32171318330504030E
:1004700034120616351407023619080E37150A0D00
:1004800038090B2C390F0C2E153D3D2A30103B2F0F
:100490003734313E2D7B27A138353230A0A0A0A0C3
:1004A000A0A0A0A02F1D0D083936332E1B0313A5C5
:1004B00009A4A1203151415A32575358334544437E
:1004C00034524656355447423659484E37554A4DB0
:1004D00038494B2C394F4C2E152D3D2A30503B2F8F
:1004E0003734313E2D7B27A138353230A0A0A0A073
:1004F000A0A0A0A02F5B0D083936332E1B0313A537
:1005000009A4A1202151415A40575358234544433F
:1005100024524656255447425E59484E26554A4D68
:100520002A494B3C284F4C3E155F2B2A29503A3F15
:100530002624213E2D7D22A12A254029A0A0A0A06D
:10054000A0A0A0A03F5D0D08285E233E1B0313A5BD
:1005500009A4A1203171617A3277737833656463BD
:1005600034726676357467623679686E37756A6D8F
:1005700038696B2C396F6C2E152D3D2A30703B2F4E
:100580003734313E2D7B27A138353230A0A0A0A0D2
:10059000A0A0A0A02F5B0D083936332E11241FBE5A
:1005A000CFEFD4E0DEBFCDBF12E0A0E0B1E0E8EADB
:1005B000FAE102C005900D92A632B107D9F723E007
:1005C000A6E2B2E001C01D92AC3BB207E1F73AD718
:1005D0003BCA16CD805A813208F037C0E82FF0E0D0
:1005E000EA5DF24F0994C8C3C9C3CCC3D0C3DBC30F
:1005F000E3C478C37FC386C38DC3A6C1C5C487E0E7
:1006000066C588E064C589E062C581E060C582E0B6
:100610005EC583E05CC584E05AC585E058C586E0C8
:1006200056C584E0CCC285E0CAC286E0C8C287E075
:10063000C6C288E0C4C289E0C2C28AE0C0C28BE000
:10064000BEC28CE0BCC28DE0BAC20895815A8D3022
:1006500070F4E82FF0E0E95BF24F0994A8C3A9C356
:10066000C3C43CC343C34AC351C371C179C40895D1
:10067000682F809129023FC2CF93C82F813A18F08A
:10068000A9DFCF910895F4DF80912A028C17C9F376
:10069000C0932A025CD4F5CFCF93C82F8A3041F0A3
:1006A0006C2F8091280227D28C2F90E0CF91089553
:1006B0008DE0F2DFF5CFCF93809128024FD2C82F83
:1006C000803A41F0809126029091270252D18C2FDE
:1006D000CF9108958091290241D2C82FF8CF90E0A0
:1006E00090932702809326020895CF93DF93C82F1B
:1006F000D62F62D3482F6D2F8C2F10D3DF91CF913F
:1007000008956F927F928F929F92AF92BF92CF92F5
:10071000DF92EF92FF920F931F93CF93DF9381E0CD
:100720005DD2A82EB92E83E04AD200E00F2EFAE067
:100730007F2EF02D88248394912C0F2EF0EA6F2EBB
:10074000F02D5AC08C2F90E0F701E80FF91F20819F
:100750003FEF320F2130D1F03083D6951695CF5F21
:100760008ED2C81708F047C0D0FDECCF10FFF5CFF0
:100770006C2F802FBADF90912A028913EECF41D4DB
:10078000882359F380912A0277DFE7CFF701E80F3A
:10079000F91F708210FF12C0F601E555FD4F94015C
:1007A0000C2E02C0220F331F0A94E2F78081822BA5
:1007B00080836C2F802F99DF5FDFCFCFF601E55567
:1007C000FD4F94010C2E02C0220F331F0A94E2F752
:1007D000C90180959081892380836C2F802F85DFCC
:1007E000813A38F490912A028913B7CF60922A0295
:1007F000B4CF2CDFB2CF0F5F37D20817C0F4802FF1
:10080000F5010995182FC02ED12CF601E555FD4FA5
:10081000D081D827C0E0C601880F991F880F991F83
:10082000880F991F9C01255D3D4F790199CFDF917C
:10083000CF911F910F91FF90EF90DF90CF90BF90DD
:10084000AF909F908F907F906F90089580EA8093F3
:100850002A020ED16DD340D280E190E01CD180936A
:10086000290280E890E017D180932802ABEAB2E039
:10087000EBE2F2E02BEB32E08AE01D928083818391
:1008800082838383848385838683878338962A172C
:100890003B0799F708953C9A259A249A08958F93D7
:1008A00081E08093BC028F9118958091BC021092D8
:1008B000BC020895882311F044980895449A08953D
:1008C000882311F02D9A08952D980895882311F00A
:1008D0002C9A08952C980895882319F0459A3D9AEA
:1008E00008954598FCCF882319F03D98459A0895BE
:1008F00045983D9A0895882319F0459A3D9A0895A0
:100900003D9845980895882319F02B98239A0895C7
:100910002B9AFCCF089508950895882319F02F9AF3
:10092000279A08952F98FCCF882319F027982F9A9B
:1009300008952F98279A0895882319F02F9A279AB7
:10094000089527982F9808952E98269A08952E9AFC
:10095000269A08958AE18A95F1F700C008952FE755
:1009600088E391E0215080409040E1F700C0000012
:100970000895282F392F2115310561F080E090E08E
:10098000EFECF7E03197F1F700C00000019628176F
:100990003907B1F70895F8941092BC0287E080936C
:1009A00061001092BC028CE787BD15BC82E084BD5B
:1009B00080936E0083E085BD8091BB028BB98FEF81
:1009C0008AB91092BB02C0DF66DF65DF88B1807F25
:1009D00088B987B18F6087B92A98229A299A219A73
:1009E000209828987894089598B18F70907F892BDB
:1009F00088B929982A9A2A98299A20E030E080E03C
:100A0000E1E093B19E27492F417050E0BA01022ED8
:100A100002C0660F771F0A94E2F7862B2A9A2A985B
:100A20002F5F3F4F2830310561F708959091BB0249
:100A300089278BB91E9A8AE18A95F1F700C01E9A20
:100A40000895833069F028F0843059F0853031F40E
:100A5000BBC4813021F0823009F4F8C388C3B9C324
:100A600028C46CC4982F81E0963008F080E0089587
:100A70001092BF021092BE021092BD020895882308
:100A800044F091E02091BD0282170CF090E0892F94
:100A9000089580E00895282F392F8091BD02843079
:100AA00034F56091BE027091BF0240E950E0461BF0
:100AB000570B42175307ECF091E0980F9093BD024B
:100AC00097E08902F0011124E054FD4F3383228323
:100AD000AB0144525D4F51834083148215821682CC
:100AE000260F371F3093BF022093BE0208958FEF69
:100AF00008958FEF0895CF93DF93C82FD62FBFDFD0
:100B0000882349F18C2F0C2E000C990B27E0C20290
:100B1000F0011124E054FD4F268162817381422F40
:100B200050E046175707BCF4FC01EE0FFF1FEE0F15
:100B3000FF1FEE0FFF1FE81BF90BE054FD4F8481F0
:100B400090E0A081B181A80FB91FDC9301968AD4EF
:100B500084832F5F2683DF91CF910895CF93C82F91
:100B60008EDF30EA882339F18C2F0C2E000C990B84
:100B700027E0C202F0011124E054FD4F268130EA43
:100B80002223C9F0FC01EE0FFF1FEE0FFF1FEE0F37
:100B9000FF1FE81BF90BE054FD4F858190E0A08119
:100BA000B181A80FB91F3C910196628173815AD41B
:100BB000858321502683832FCF91089508959FEF39
:100BC000980F9E3050F4E82FF0E0EE0FFF1FE4592D
:100BD000FC4F0190F081E02D099508959FEF980F4B
:100BE0009E3048F4E82FF0E0EE0FFF1FE459FC4F71
:100BF0008081918108958EED95E008959FEF980F83
:100C00009E3040F4E82FF0E0EE0FFF1FE459FC4F58
:100C1000608371830895ECE6F3E02AE833E08EED1B
:100C200095E081939193E217F307D9F7ECE6F3E0AF
:100C300084EF94E09383828386E195E095838483B7
:100C40000895643080F4413170F4293060F4E62F67
:100C5000F0E0EE0FFF1FEE0FFF1FE557FC4F808304
:100C60009183428323830895A7D0E82FF0E0EE0F0D
:100C7000FF1FEE0FFF1FE557FC4F828108959CD0A8
:100C8000E82FF0E0EE0FFF1FEE0FFF1FE557FC4FC0
:100C900083810895CF93DF93D82FE4DE811103C0C1
:100CA000DF91CF910895D0938A0375DEC0E020E0F4
:100CB00040E06C2F80E090E0C4DFCF5FC430B9F734
:100CC00031D2A9DF8D2FBDDEEBCF90918A0398132F
:100CD00001C00895DFDFFDCF80E0DCCF80918A0383
:100CE0008E7FF3CF80918A038160EFCF80918A035A
:100CF0008D7FEBCF80918A038260E7CF80918A035A
:100D00008B7FE3CF80918A038460DFCF80918A0359
:100D1000877FDBCF80918A038860D7CF982F20917F
:100D20008A0330E0F901EE0FFF1FEE0FFF1FE557BA
:100D3000FC4F83818823C1F022812223A1F0E42F7C
:100D4000F0E0EE0FFF1FEE0FFF1FE557FC4F70E0C6
:100D5000899F600D711D11240190F081E02DE60F37
:100D6000F71F84910895822F089580939D0361E079
:100D700081FF62E08BE074C181E0F7CF80919D0339
:100D80008260F3CF80919D0392E08927EECF90910E
:100D90009C0381E0892780939C0361E0913009F4F2
:100DA00062E08AE05DC181E080939B03089580E06A
:100DB000DCCF10929B030895E1E080919D038111A7
:100DC00001C0E0E080919C038111E26080919B036F
:100DD0008111E460F0E0EE5BFE4F808108951F9387
:100DE000CF93DF93162FC82FD0E0CC0FDD1FCC0F91
:100DF000DD1FC050DF4FE881F981862F09951A83E6
:100E0000DF91CF911F910895CF93DF93C82FD0E04A
:100E1000CC0FDD1FCC0FDD1FC050DF4FE881F98103
:100E200081E0099581E08A83DF91CF910895CF9386
:100E3000DF93C82FD0E0CC0FDD1FCC0FDD1FC050DB
:100E4000DF4FE881F98180E009951A82DF91CF9127
:100E50000895E82FF0E0EE0FFF1FEE0FFF1FE050A8
:100E6000FF4F61E09281911160E0B9CF282F9091FE
:100E700003019923B9F0981779F0E92FF0E0892F51
:100E8000EE0FFF1FEE0FFF1FE050FF4F93819923DE
:100E900059F02913F2CF0895882311F080E00895C6
:100EA0008DE008958DE008958DE00895E82FF0E03D
:100EB000EE0FFF1FEE0FFF1FE050FF4F83810895DD
:100EC0001F93CF93DF93C82FD62F142FCFDF9FEF21
:100ED0009C0F9C30C8F48D30E1F0EC2FF0E0EE0F69
:100EE000FF1FEE0FFF1FE050FF4F9381A82FB0E0D0
:100EF000AA0FBB1FAA0FBB1FA050BF4F13969C93F6
:100F0000D383128381E001C080E0DF91CF911F91F4
:100F1000089580E0FACFE2E0F1E080E091E0908394
:100F20008F5F818334968D30D1F71092330108950D
:100F30008DE092E09093A1038093A0039093A3038C
:100F40008093A20390939F0380939E0308958091C2
:100F5000A2039091A30390939F0380939E0308950F
:100F60001092A1031092A0038091A2039091A30379
:100F70008234910541F01092A3031092A2031092C3
:100F80009F0310929E0308958DE092E09093A10339
:100F90008093A0038091A2039091A30382349105D2
:100FA00051F08DE092E09093A3038093A20390937D
:100FB0009F0380939E03089580919E0390919F03C9
:100FC0008334910530F48091A2039091A303892B7F
:100FD00051F482E490E09093A3038093A203909352
:100FE0009F0380939E0308958091A0039091A10395
:100FF0009093A3038093A20390939F0380939E03F7
:10100000089580919E0390919F03009799F09C0111
:1010100021503109019731F030939F0320939E03B3
:1010200080E0089582E490E090939F0380939E0374
:1010300081E0089580E008950F931F93CF93082FC8
:10104000192FC62F662341F08C2FF80109958C2F9C
:101050002DDFC82F8111F8CFCF911F910F910895E7
:10106000CF93E82FF0E0EE0FFF1FEC55FC4FC0814F
:101070006330F1F048F0643081F06530B9F46C2FE2
:1010800089E297E0D9DF12C06130E1F0623071F49B
:101090006C2F87E197E0D0DF09C06C2F89E297E0E1
:1010A000CBDF5DDC6C2F89E297E0C6DFCF9108953E
:1010B0006C2F89E297E0C0DF4DDC6C2F89E297E06E
:1010C000BBDFF4CF6C2F84E097E0B6DFEFCFE82FE3
:1010D000F0E0EE0FFF1FEC55FC4F6181C1CF0F9385
:1010E0001F93CF93DF93162F042F9FEF980F9B3002
:1010F00028F0DF91CF911F910F910895C82FD0E074
:10110000FE01EE0FFF1FEC55FC4F422F6081812F37
:10111000D7DE882371F3CC0FDD1FCC55DC4F18834D
:101120000983E7CFF8DEE4EAF3E08CEB93E0118289
:1011300010823296E817F907D1F70895CF93DF931D
:10114000CDB7DEB7AE014B5F5F4FFA016191719190
:10115000AF0184E391E0ADD1DF91CF9108958AE4AE
:1011600091E09F938F93EADF0F900F90089588E2AC
:10117000B6DA60E080E057D062E081E054D061E010
:1011800082E051D063E083E04ED06FEA78E08DE0FA
:1011900035DD63E879E08CE031DD21E040E06AE0B4
:1011A00087E09DDF20E040E06CE08AE098DF21E00E
:1011B00043E068E081E093DF20E044E063E082E028
:1011C0008ECF8AE491E09F938F93B8DF0F900F90BA
:1011D000089588E284DA60E081E025D062E081E071
:1011E00022D061E082E01FD063E083E01CD061EE9A
:1011F00078E08DE003DD63E879E08CE0FFDC21E05E
:1012000040E06AE087E06BDF20E040E06CE087E0F0
:1012100066DF21E043E068E081E061DF20E044E058
:1012200063E082E05CCFE82FF0E0EE0FFF1FE35AAF
:10123000FE4F28E049E08081918103CD85E691E071
:101240009F938F937BDF0F900F90089588E247DA8A
:1012500060E080E060D062E081E05DD061E082E04B
:101260005AD063E084E057D063E879E086E0C6DCDA
:101270006EE179E08DE0C2DC20E040E06AE08AE0E7
:101280002EDF20E040E06CE088E029DF21E043E051
:1012900068E081E024DF20E044E063E082E01FDFDB
:1012A00076CD82E891E09F938F9348DF0F900F9067
:1012B000089588E214DA60E081E02DD062E081E0F8
:1012C0002AD061E083E027D063E084E024D063E8A3
:1012D00079E08CE093DC61E579E08DE08FDC20E063
:1012E00040E06AE087E0FBDE20E040E06CE088E080
:1012F000F6DE21E043E068E081E0F1DE20E044E05A
:1013000063E082E0ECCE89E991E09F938F9316DF52
:101310000F900F900895E82FF0E0EE0FFF1FE051BF
:10132000FE4F28E049E0808191818BCC8AEF91E0EB
:101330009F938F9303DF0F900F90089528E04DE067
:1013400060E084EF93E07DDC28E04DE062E08CE833
:1013500093E077DC28E04DE061E084E293E071DC2B
:1013600028E04DE063E08CEB92E06BDC88E2B7D9DB
:1013700020E040E06AE08AE0B2DE20E040E06CE09D
:101380008BE0ADDE21E045E061E083E0A8DE20E017
:1013900045E06BE083E0A3DE21E043E068E081E02C
:1013A0009EDE21E044E064E082E099DEF0DCCFDA0A
:1013B00066E979E08DE022CC8AE092E09F938F93FA
:1013C000BDDE0F900F90089588E289D960E080E03B
:1013D00026D062E081E023D061E082E020D063E0AB
:1013E00083E01DD06CED79E08DE008DC6AE17AE005
:1013F0008CE004DC21E040E06AE087E070DE20E081
:1014000040E06CE08AE06BDE21E043E068E081E0F0
:1014100066DE20E044E063E082E061DEB8CCE82FE5
:10142000F0E0EE0FFF1FE35EFD4F28E04AE0808111
:10143000918107CC89E991E09F938F937FDE0F9094
:101440000F90089503DA01C05CD92FDA8823E9F3FD
:1014500032D9C82F803AC0F782E0C0DBFC018C2F64
:101460000995F2CF97FB072E16F4009406D077FD6E
:1014700008D00BD007FC05D03EF4909581959F4F86
:101480000895709561957F4F0895AA1BBB1B51E18C
:1014900007C0AA1FBB1FA617B70710F0A61BB70BE4
:1014A000881F991F5A95A9F780959095BC01CD0189
:1014B0000895AFE0B0E0EEE5FAE092C26C017B0186
:1014C0008A01DC0117961C921E92169713968C9136
:1014D00081FFDCC12AE0522EF6019381F70193FDD2
:1014E000859193FF81917F01882309F46FC0853234
:1014F00039F493FD859193FF81917F01853221F429
:10150000B60190E0DCD1E8CF912C612C712CFFE189
:10151000F71508F443C08B32B1F1E8F48032A9F139
:101520008332C9F1833609F486C0833709F48FC04A
:10153000833509F0AFC0F801A190B1908F01692DFA
:1015400070E076FC02C06FEF7FEFC501A2D14C01C5
:10155000689477F85DC08D32D9F0803349F020ED82
:10156000280F2A3040F18E32C1F5689476F802C017
:10157000689470F8F70193FD859193FF81917F0145
:101580008111C5CF32C0689471F8689472F8F2CFB7
:10159000689473F8EFCF689474F8ECCF77FC25C0AB
:1015A00020ED280F2A3070F476FE05C0959C200DA2
:1015B0001124922EDFCF659C200D1124622E689499
:1015C00075F8D8CF8E3249F476FECFCFD601169675
:1015D0008D919C912F96EFE01FC28C3619F4689480
:1015E00077F8C8CF883609F4C5CF982F9F7D9554DA
:1015F000933008F097CF0C5F1F4F8FE389838824C7
:101600008394912CAE014F5F5F4F5A01E89477F8B5
:1016100073FC05C0862D90E08816990630F1811480
:10162000910449F5662009F457CFB60180E290E0B5
:1016300046D16A94F7CFD8018C9189830E5F1F4FF2
:1016400088248394912CFE0131965F01DFCFD8016D
:10165000AD90BD908D01692D70E076FC02C06FEFFA
:101660007FEFC50121D14C01D1CFB60180E290E0DE
:1016700026D16A94CFCFF50177FC859177FE8191D1
:101680005F01B60190E01BD161106A94F1E08F1AFE
:101690009108C5CF843619F0893609F07DC0F8016C
:1016A00077FE73C061917191819191918F01272D86
:1016B0002F76822E97FF09C0909580957095619541
:1016C0007F4F8F4F9F4F689487F82AE030E0AE013C
:1016D0004F5F5F4F5A0123D18A19A82EBA2C782C5C
:1016E00086FE0CC0E89470F8A91440F484FE05C08E
:1016F00082FC03C0782D7E7E772EB92C74FEA1C0AB
:10170000FE01EA0DF11D8081803309F093C0872D21
:10171000897E782E73FC0EC070FEA1C09A2CB61480
:1017200018F4960C9B18B62C862D8B196B1408F4A4
:1017300080E0B80EB61408F094C06B1874FE93C025
:10174000B60180E390E0BBD072FE08C088E590E06F
:1017500071FC02C088E790E0B601B1D0A91408F48A
:101760008FC0AA94B12C9FEFA91AB90ADE01119675
:101770004D01AA0EBB1EF50182915F01B60190E0FA
:101780009ED08A149B04B9F74DCF61917191072EB9
:10179000000C880B990B8ACF872CE89484F82AE0F8
:1017A00030E0853769F0572D597F852E803769F1F4
:1017B00010F5883569F18F3609F008CF28E030E060
:1017C000F80187FE2DC081919191A191B1918C87F3
:1017D0009D87AE87BF878F01BE016F5F7F4F5B0123
:1017E000AB016C857D858E859F8599D08A19A82E41
:1017F000E89487F873CF883709F0E8CE84FE02C0FA
:10180000689482F820E130E0DBCF689484F8F6CF6A
:1018100074FE03C0652F6660862E20E132E0D0CFD3
:1018200081919191AC0160E070E04C875D876E879B
:101830007F87D1CF72FC02C0B3946CCFB394B394C2
:1018400069CF872D8678882309F464CFF5CFB60158
:1018500080E290E034D083948614C8F365CF8B2C5B
:10186000FBCF612C6BCF872D8678882309F476CF48
:101870008BE271FE80E277FC8DE2B60190E06DCFE5
:10188000B60180E390E01BD09A9468CF8FEF9FEF72
:10189000A1CEFC010590615070400110D8F78095F1
:1018A00090958E0F9F1F0895FC016150704001902C
:1018B0000110D8F7809590958E0F9F1F08950F9374
:1018C0001F93CF93DF93182F092FEB018B8181FD9D
:1018D00009C01FEF0FEF812F902FDF91CF911F9144
:1018E0000F91089582FF14C02E813F818C819D81CC
:1018F000281739073CF4E881F981CF0101969983D3
:10190000888310838E819F8101969F838E83E3CF8E
:10191000E885F985812F0995892BA1F3DACFFA01A2
:10192000AA27283051F1203181F1E8946F936E7F1E
:101930006E5F7F4F8F4F9F4FAF4FB1E03ED0B4E00F
:101940003CD0670F781F891F9A1FA11D680F791F50
:101950008A1F911DA11D6A0F711D811D911DA11D61
:1019600020D009F468943F912AE0269F1124301971
:10197000305D3193DEF6CF010895462F4770405D0C
:101980004193B3E00FD0C9F7F6CF462F4F70405DBB
:101990004A3318F0495D31FD4052419302D0A9F716
:1019A000EACFB4E0A6959795879577956795BA9510
:1019B000C9F700976105710508959B01AC010A2ED6
:1019C00006945795479537952795BA95C9F7620FAD
:1019D000731F841F951FA01D08952F923F924F9251
:1019E0005F926F927F928F929F92AF92BF92CF92AF
:1019F000DF92EF92FF920F931F93CF93DF93CDB7B8
:101A0000DEB7CA1BDB0B0FB6F894DEBF0FBECDBF2F
:101A100009942A88398848885F846E847D848C8400
:101A20009B84AA84B984C884DF80EE80FD800C8109
:101A30001B81AA81B981CE0FD11D0FB6F894DEBFEC
:101A40000FBECDBFED010895F894FFCFEAC5CBC519
:101A5000CBC5CBC5CBC5CBC5CBC5E3C5CAC5CAC5F0
:101A6000CAC5CAC5CBC5C9C5CAC5CBC5CCC5CDC5F8
:101A7000CEC5CFC5D0C5D1C5D2C5D3C5D4C5D5C5B2
:101A8000D6C5D7C5D8C5D9C5DAC5DBC5DCC5E6C559
:101A9000EEC5EDC5ECC5E3C5E3C5E9C5E2C5E2C5E4
:081AA000E2C5E2C5E3C5E1C5A2
:101AA8008A0400006C040000730400007B0400003A
:101AB800830400008B0400008C0400008D040000E7
:101AC800940400009C0400005A0400006004000014
:101AD8006604000000000002000000004C03000043
:101AE800000000010201030303035B4B65796D618C
:101AF800703A20636C61737369635D0A000C017C42
:101B080000C40034005B4B65796D61703A20417008
:101B1800706C6520322028752F6C206361736529ED
:101B28005D005B4B65796D61703A204170706C6542
:101B3800203220434150535D003130474554412401
:101B48002830293A413D4153432841242830292946
:101B58003A41242831293D2243544C2B222B434817
:101B680052242841202B203634293A3F2227223B71
:101B7800412428413C3332293B2227203D20223B67
:101B8800413A4946413C3E33474F544F31300D00AE
:101B980074029C012C02E40154015B4B6579626478
:101BA8003A20536F6C2D32305D005B4B65796D6167
:101BB800703A20616365313030305D0A004C05AC05
:061BC80004FC045C0400B3
:00000001FF
