:1000000025C3000043C3000041C300003FC30000FC
:100010003DC300003BC3000039C3000037C30000EC
:1000200035C3000033C3000031C300002FC30000FC
:100030002DC300002BC3000029C3000027C300000C
:1000400025C3000023C3000021C300001FC300001C
:100050001DC3000081C4000019C3000017C30000C5
:1000600015C3000013C3000011C300000FC300003C
:100070000DC300000BC3000009C3000007C300004C
:1000800005C3000003C3000001C30000FFC200005D
:10009000FDC20000FBC20000F9C20000F7C2000070
:1000A000F5C20000F3C20000F1C20000EFC2000080
:1000B000EDC20000EBC20000E9C20000E7C2000090
:1000C000E5C20000E3C20000E1C20000DFC20000A0
:1000D000DDC20000DBC20000D9C20000D7C20000B0
:1000E000D5C20000A0A1A1A01B09A55C7F503B2F99
:1000F000205A4151A02C4D4E42564358A04B4A48DD
:1001000047464453A049555954524557A0A6A40DFB
:100110000A4F4C2E7E5D5B2D3A30393840373635EC
:1001200034333231A8A9AAAB00C1ADACA0A1A1A0C3
:100130001B09A55C7F503B2F205A4151A02C4D4EEE
:1001400042564358A04B4A4847464453A049555944
:1001500054524557A0A6A40D0A4F4C2E7E5D5B2D30
:100160003A3039384037363534333231A8A9AAAB62
:1001700000C1ADACA0A1A1A01B09A57C7F502B3F65
:10018000205A4151B23C4D4E42564358A04B4A482A
:1001900047464453A049555954524557A0A6A40D6B
:1001A0000A4F4C3E7E7D7B3D2A302928602726253C
:1001B00024232221A8A9AAAB00C1ADACA0A1A1A073
:1001C0001B09A55C7F703B2F207A6171A02C6D6E9E
:1001D00062766378A06B6A6867666473A0697579F4
:1001E00074726577A0A6A40D0A6F6C2E7E5D5B2DE0
:1001F0003A3039384037363534333231A8A9AAABD2
:1002000000C1ADACA4A1A1A0A01BA515A010A05C2D
:10021000201A0111A05B0D0E02160318A00B0A088C
:1002200007060413A009151914120517A0A0A00DA4
:10023000A60F0C5DA0A0B15FA0C07D7B7F605EBB00
:10024000BAB97E7CA8A9AAAB00C1ADACA4A1A1A0FB
:10025000A01BA515A0503B2F205A4151A02C4D4E5C
:1002600042564358A04B4A4847464453A049555923
:1002700054524557A0A0A00DA64F4C2EA0A0A02DD3
:100280003A3039380837363534333231A8A9AAAB79
:1002900000C1ADACA4A1A1A0A01BA515A0402B3FFF
:1002A000205A4151A03C4D5E42564358A04B4A480B
:1002B00047464453A049555954524557A0A0A00D54
:1002C000A64F4C3EA0A0B23D2AA0292808272625EB
:1002D00024232221A8A9AAAB00C1ADACA4A1A1A04E
:1002E000A01BA515A0502B3F205A4151A03C4D4EBC
:1002F00042564358A04B4A4847464453A049555993
:1003000054524557A0A0A00D404F4C3EA0A0B23D76
:100310002A4029280827262524232221A8A9AAAB78
:1003200000C1ADACA4A1A1A0A01BA5157F703B2F5F
:10033000207A6171A02C6D6E62766378A06B6A681A
:1003400067666473A069757974726577A0A0A00D63
:100350005E6F6C2EA0A0A02D3A30393808373635A4
:1003600034333231A8A9AAAB00C1ADACA5A20113A8
:10037000040607080A0B0C0B0A7FB1A5A4A11A18E2
:100380000316020E0D0C0E0FA180A0A01B0102038C
:10039000040506070809000D1E1B1C1DB2091117D4
:1003A0000512141915090F10000D0A8CA8A9AAAB83
:1003B00000C1ADACB3978120939A8E8B2D372A382C
:1003C0002F39A0A0343135323633A0A0302E2BA0E7
:1003D000A0A0A0A0A5A24153444647484A4B4C3B8D
:1003E0003A5FA6A5A4A15A584356424E4D3C3E3F03
:1003F000A180A0A01B212223242526272829203DD7
:100400007E5B5C5DB20951574552545955494F5076
:10041000600D0A8CA8A9AAAB00C1ADACB39781202E
:10042000939A8E8B2D372A382F39A0A0343135324C
:100430003633A0A0302E2BA0A0A0A0A0A5A241538F
:10044000444647484A4B4C3B3A7FA6A5A4A15A587C
:100450004356424E4D2C2E2FA180A0A01B3132338B
:10046000343536373839302D5E5B5C5DB209515713
:100470004552545955494F50400D0A8CA8A9AAAB72
:1004800000C1ADACB3978120939A8E8B2D372A385B
:100490002F39A0A0343135323633A0A0302E2BA016
:1004A000A0A0A0A0A5A26173646667686A6B6C3B9C
:1004B0003A7FA6A5A4A17A786376626E6D2C2E2F62
:1004C000A180A0A01B313233343536373839302D76
:1004D0005E5B5C5DB20971776572747975696F7086
:1004E000400D0A8CA8A9AAAB00C1ADACB39781207E
:1004F000939A8E8B2D372A382F39A0A0343135327C
:100500003633A0A0302E2BA0A0A0A0A01B0313A5C3
:1005100009A4A1203111011A32171318330504035D
:1005200034120616351407023619080E37150A0D4F
:1005300038090B2C390F0C2E153D3D2A30103B2F5E
:100540003734313E2D7B27A138353230A0A0A0A012
:10055000A0A0A0A02F1D0D083936332E1B0313A514
:1005600009A4A1203151415A3257535833454443CD
:1005700034524656355447423659484E37554A4DFF
:1005800038494B2C394F4C2E152D3D2A30503B2FDE
:100590003734313E2D7B27A138353230A0A0A0A0C2
:1005A000A0A0A0A02F5B0D083936332E1B0313A586
:1005B00009A4A1202151415A40575358234544438F
:1005C00024524656255447425E59484E26554A4DB8
:1005D0002A494B3C284F4C3E155F2B2A29503A3F65
:1005E0002624213E2D7D22A12A254029A0A0A0A0BD
:1005F000A0A0A0A03F5D0D08285E233E1B0313A50D
:1006000009A4A1203171617A32777378336564630C
:1006100034726676357467623679686E37756A6DDE
:1006200038696B2C396F6C2E152D3D2A30703B2F9D
:100630003734313E2D7B27A138353230A0A0A0A021
:10064000A0A0A0A02F5B0D083936332E11241FBEA9
:10065000CFEFD1E2DEBFCDBF00E00CBF13E0A0E0E2
:10066000B2E0ECE6FBE100E00BBF02C007900D92A8
:10067000A632B107D9F724E0A6E2B3E001C01D928B
:10068000AC3BB207E1F748D70C94860DB9CC805A41
:10069000813208F039C0E82FF0E08827E857F24FA0
:1006A0008F4F5DC7D3C3D4C3D7C3DBC3E6C3EEC488
:1006B00083C38AC391C398C3B2C1D0C487E071C554
:1006C00088E06FC589E06DC581E06BC582E069C5D2
:1006D00083E067C584E065C585E063C586E061C5E4
:1006E00084E0D7C285E0D5C286E0D3C287E0D1C21C
:1006F00088E0CFC289E0CDC28AE0CBC28BE0C9C21C
:100700008CE0C7C28DE0C5C20895815A8D3080F457
:10071000E82FF0E08827E755F24F8F4F20C7B1C38D
:10072000B2C3CCC445C34CC353C35AC37BC182C4F8
:100730000895682F8091290348C2CF93C82F813A2A
:1007400018F0A5DFCF910895F4DF80912A038C176C
:10075000C9F3C0932A0365D4F5CFCF93C82F8A304D
:1007600041F06C2F8091280330D28C2F90E0CF91F4
:1007700008958DE0F2DFF5CFCF938091280358D212
:10078000C82F803A41F080912603909127035CD1D5
:100790008C2FCF910895809129034AD2C82FF8CF8A
:1007A00090E090932703809326030895CF93DF93DF
:1007B000C82FD62F6BD3482F6D2F8C2F19D3DF91D5
:1007C000CF9108956F927F928F929F92AF92BF9236
:1007D000CF92DF92EF92FF920F931F93CF93DF930D
:1007E00081E066D2A82EB92E83E053D200E00F2E0E
:1007F000FAE07F2EF02D88248394912C0F2EF0EABE
:100800006F2EF02D5AC08C2F90E0F701E80FF91FE2
:1008100020813FEF320F2130D1F03083D6951695ED
:10082000CF5F97D2C81708F047C0D0FDECCF10FFBC
:10083000F5CF6C2F802FBADF90912A038913EECF6A
:100840004AD4882359F380912A0377DFE7CFF70151
:10085000E80FF91F708210FF12C0F601E555FC4F3A
:1008600094010C2E02C0220F331F0A94E2F78081FC
:10087000822B80836C2F802F99DF5FDFCFCFF60133
:10088000E555FC4F94010C2E02C0220F331F0A9431
:10089000E2F7C90180959081892380836C2F802F96
:1008A00085DF813A38F490912A038913B7CF60929B
:1008B0002A03B4CF2ADFB2CF0F5F40D20817C0F4AB
:1008C000802FF5011995182FC02ED12CF601E55572
:1008D000FC4FD081D827C0E0C601880F991F880F30
:1008E000991F880F991F9C01255D3C4F790199CF75
:1008F000DF91CF911F910F91FF90EF90DF90CF90FC
:10090000BF90AF909F908F907F906F90089580EAF6
:1009100080932A0317D176D349D280E190E025D184
:100920008093290380E890E020D180932803ABEAEC
:10093000B3E0EBE2F3E02BEB33E08AE01D9280833F
:1009400081838283838384838583868387833896A8
:100950002A173B0799F708958F9381E08093BC0392
:100960008F9118958091BC031092BC030895882341
:1009700011F05D9808955D9A0895882311F05E98AE
:1009800008955E9A0895882311F05F9808955F9AFC
:1009900008950895882319F02D9A259A08952D9881
:1009A000FCCF882319F025982D9A08952D98259A23
:1009B0000895882319F02D9A259A089525982D9841
:1009C0000895882319F02E9A269A08952E98FCCF20
:1009D000882319F026982E9A08952E98269A08951D
:1009E000882319F02E9A269A089526982E9808950D
:1009F000882319F02F9A279A08952F98FCCF8823DF
:100A000019F027982F9A08952F98279A08958823E8
:100A100019F02F9A279A089527982F9808952C98BF
:100A2000249A08952C9A249A089585E38A95F1F7DB
:100A3000000008952FEF80E792E021508040904021
:100A4000E1F700C000000895282F392F2115310546
:100A500061F080E090E0EFE9FFE03197F1F700C04E
:100A60000000019628173907B1F70895CF93F8943D
:100A70001092BC0387E0809361001092BC0389EF61
:100A800087BD15BC82E084BD80936E0083E085BD88
:100A90008091BB0380930201CFEFC09301011092BC
:100AA000BB03BDDF559A569A579AC1B9C09304014A
:100AB00017B8C8B97894CF910895282F81E090E0B5
:100AC000A0E0B0E004C0880F991FAA1FBB1F2A95A1
:100AD000D2F780959095A095B0958093050125E17A
:100AE0002A95F1F70000892F9A2FAB2FBB2782B9E7
:100AF00085E18A95F1F7000086B18095089590917F
:100B0000BB038927809302011C9A85E38A95F1F73C
:100B100000001C9A0895833069F028F0843059F061
:100B2000853031F4BBC4813021F0823009F4F8C340
:100B300088C3B9C328C46CC4982F81E0963008F0EC
:100B400080E008951092BF031092BE031092BD037F
:100B50000895882344F091E02091BD0382170CF0A2
:100B600090E0892F089580E00895282F392F8091F3
:100B7000BD03843034F56091BE037091BF0340E93A
:100B800050E0461B570B42175307ECF091E0980FCB
:100B90009093BD0397E08902F0011124E054FC4FCB
:100BA00033832283AB0144525C4F518340831482D0
:100BB00015821682260F371F3093BF032093BE0382
:100BC00008958FEF08958FEF0895CF93DF93C82F87
:100BD000D62FBFDF882349F18C2F0C2E000C990BE8
:100BE00027E0C202F0011124E054FC4F268162810B
:100BF0007381422F50E046175707BCF4FC01EE0FFB
:100C0000FF1FEE0FFF1FEE0FFF1FE81BF90BE05455
:100C1000FC4F848190E0A081B181A80FB91FDC93C3
:100C200001968AD484832F5F2683DF91CF91089524
:100C3000CF93C82F8EDF30EA882339F18C2F0C2E0A
:100C4000000C990B27E0C202F0011124E054FC4F84
:100C5000268130EA2223C9F0FC01EE0FFF1FEE0FC0
:100C6000FF1FEE0FFF1FE81BF90BE054FC4F8581BF
:100C700090E0A081B181A80FB91F3C9101966281DB
:100C800073815AD4858321502683832FCF91089571
:100C900008959FEF980F9E3050F4E82FF0E0EE0F8C
:100CA000FF1FE459FB4F0190F081E02D1995089545
:100CB0009FEF980F9E3048F4E82FF0E0EE0FFF1FF3
:100CC000E459FB4F80819181089588E496E008956E
:100CD0009FEF980F9E3040F4E82FF0E0EE0FFF1FDB
:100CE000E459FB4F608371830895ECE6F4E02AE851
:100CF00034E088E496E081939193E217F307D9F703
:100D0000ECE6F4E08DE595E0938382838FE795E050
:100D1000958384830895643080F4413170F42930E0
:100D200060F4E62FF0E0EE0FFF1FEE0FFF1FE55718
:100D3000FB4F80839183428323830895A7D0E82FBC
:100D4000F0E0EE0FFF1FEE0FFF1FE557FB4F828114
:100D500008959CD0E82FF0E0EE0FFF1FEE0FFF1F6D
:100D6000E557FB4F83810895CF93DF93D82FE4DEBF
:100D7000811103C0DF91CF910895D0938A0476DE6C
:100D8000C0E020E040E06C2F80E090E0C4DFCF5F67
:100D9000C430B9F731D2A9DF8D2FBDDEEBCF9091F2
:100DA0008A04981301C00895DFDFFDCF80E0DCCF17
:100DB00080918A048E7FF3CF80918A048160EFCF87
:100DC00080918A048D7FEBCF80918A048260E7CF87
:100DD00080918A048B7FE3CF80918A048460DFCF87
:100DE00080918A04877FDBCF80918A048860D7CF87
:100DF000982F20918A0430E0F901EE0FFF1FEE0FCB
:100E0000FF1FE557FB4F83818823C1F022812223F6
:100E1000A1F0E42FF0E0EE0FFF1FEE0FFF1FE557EC
:100E2000FB4F70E0899F600D711D11240190F081CE
:100E3000E02DE60FF71F84910895822F0895809387
:100E40009D0461E081FF62E08BE074C181E0F7CF37
:100E500080919D048260F3CF80919D0492E0892768
:100E6000EECF90919C0481E0892780939C0461E0FF
:100E7000913009F462E08AE05DC181E080939B04D7
:100E8000089580E0DCCF10929B040895E1E080910A
:100E90009D04811101C0E0E080919C048111E26019
:100EA00080919B048111E460F0E0EE5BFD4F808156
:100EB00008951F93CF93DF93162FC82FD0E0CC0F48
:100EC000DD1FCC0FDD1FC050DE4FE881F981862F7A
:100ED00019951A83DF91CF911F910895CF93DF93D6
:100EE000C82FD0E0CC0FDD1FCC0FDD1FC050DE4F70
:100EF000E881F98181E0199581E08A83DF91CF91C2
:100F00000895CF93DF93C82FD0E0CC0FDD1FCC0F17
:100F1000DD1FC050DE4FE881F98180E019951A820B
:100F2000DF91CF910895E82FF0E0EE0FFF1FEE0F55
:100F3000FF1FE050FE4F61E09281911160E0B9CF58
:100F4000282F909103029923B9F0981779F0E92F8F
:100F5000F0E0892FEE0FFF1FEE0FFF1FE050FE4F56
:100F60009381992359F02913F2CF0895882311F022
:100F700080E008958DE008958DE008958DE0089556
:100F8000E82FF0E0EE0FFF1FEE0FFF1FE050FE4FC7
:100F9000838108951F93CF93DF93C82FD62F142FEB
:100FA000CFDF9FEF9C0F9C30C8F48D30E1F0EC2F29
:100FB000F0E0EE0FFF1FEE0FFF1FE050FE4F93819A
:100FC000A82FB0E0AA0FBB1FAA0FBB1FA050BE4F97
:100FD00013969C93D383128381E001C080E0DF915C
:100FE000CF911F91089580E0FACFE2E0F2E080E037
:100FF00091E090838F5F818334968D30D1F710928A
:10100000330208958DE092E09093A1048093A004B0
:101010009093A3048093A20490939F0480939E04D2
:1010200008958091A2049091A30490939F048093CB
:101030009E0408951092A1041092A0048091A2042D
:101040009091A3048234910541F01092A304109270
:10105000A20410929F0410929E0408958DE092E0E5
:101060009093A1048093A0048091A2049091A30482
:101070008234910551F08DE092E09093A304809327
:10108000A20490939F0480939E04089580919E04EF
:1010900090919F048334910530F48091A204909143
:1010A000A304892B51F482E490E09093A3048093ED
:1010B000A20490939F0480939E0408958091A004BD
:1010C0009091A1049093A3048093A20490939F0411
:1010D00080939E04089580919E0490919F040097B0
:1010E00099F09C0121503109019731F030939F0410
:1010F00020939E0480E0089582E490E090939F0402
:1011000080939E0481E0089580E008950F931F93DB
:10111000CF93082F192FC62F662341F08C2FF8018B
:1011200019958C2F2DDFC82F8111F8CFCF911F91EA
:101130000F910895CF93E82FF0E0EE0FFF1FEC55CD
:10114000FB4FC0816330F1F048F0643081F06530CE
:10115000B9F46C2F83E997E0D9DF12C06130E1F078
:10116000623071F46C2F81E897E0D0DF09C06C2FFA
:1011700083E997E0CBDF5EDC6C2F83E997E0C6DF85
:10118000CF9108956C2F83E997E0C0DF4EDC6C2F80
:1011900083E997E0BBDFF4CF6C2F8EE697E0B6DFF4
:1011A000EFCFE82FF0E0EE0FFF1FEC55FB4F618112
:1011B000C1CF0F931F93CF93DF93162F042F9FEF71
:1011C000980F9B3028F0DF91CF911F910F910895D8
:1011D000C82FD0E0FE01EE0FFF1FEC55FB4F422F52
:1011E0006081812FD7DE882371F3CC0FDD1FCC55B2
:1011F000DB4F18830983E7CFF8DEE4EAF4E08CEBF9
:1012000094E0118210823296E817F907D1F7089519
:10121000CF93DF93CDB7DEB7AE014A5F5F4FFA01E0
:1012200061917191AF0184E392E0B5D1DF91CF91EB
:1012300008958AE492E09F938F93EADF0F900F90D6
:10124000089588E2ADDA60E080E057D062E081E0A6
:1012500054D061E082E051D063E083E04ED069E198
:1012600079E08DE035DD6DEE79E08CE031DD21E077
:1012700040E06AE087E09DDF20E040E06CE08AE04B
:1012800098DF21E043E068E081E093DF20E044E084
:1012900063E082E08ECF8AE492E09F938F93B8DF81
:1012A0000F900F90089588E27BDA60E081E025D00E
:1012B00062E081E022D061E082E01FD063E083E061
:1012C0001CD06BE479E08DE003DD6DEE79E08CE01D
:1012D000FFDC21E040E06AE087E06BDF20E040E0F7
:1012E0006CE087E066DF21E043E068E081E061DFF9
:1012F00020E044E063E082E05CCFE82FF0E0EE0F16
:10130000FF1FE35AFD4F28E049E08081918103CD22
:1013100085E692E09F938F937BDF0F900F90089567
:1013200088E23EDA60E080E060D062E081E05DD09B
:1013300061E082E05AD063E084E057D06DEE79E05E
:1013400086E0C6DC68E879E08DE0C2DC20E040E0C1
:101350006AE08AE02EDF20E040E06CE088E029DFF0
:1013600021E043E068E081E024DF20E044E063E046
:1013700082E01FDF76CD82E892E09F938F9348DF73
:101380000F900F90089588E20BDA60E081E02DD095
:1013900062E081E02AD061E083E027D063E084E06E
:1013A00024D06DEE79E08CE093DC6BEB79E08DE09E
:1013B0008FDC20E040E06AE087E0FBDE20E040E0F8
:1013C0006CE088E0F6DE21E043E068E081E0F1DEF9
:1013D00020E044E063E082E0ECCE89E992E09F9374
:1013E0008F9316DF0F900F900895E82FF0E0EE0F27
:1013F000FF1FE051FD4F28E049E0808191818BCCB7
:101400008AEF92E09F938F9303DF0F900F900895E0
:1014100028E04DE060E084EA94E07DDC28E04DE0E7
:1014200062E08CE394E077DC28E04DE061E084ED5D
:1014300093E071DC28E04DE063E08CE693E06BDC48
:1014400088E2AED920E040E06AE08AE0B2DE20E047
:1014500040E06CE08BE0ADDE21E045E061E083E060
:10146000A8DE20E045E06BE083E0A3DE21E043E07E
:1014700068E081E09EDE21E044E064E082E099DE05
:10148000F0DCD0DA60E07AE08DE022CC8AE093E014
:101490009F938F93BDDE0F900F90089588E280D9BF
:1014A00060E080E026D062E081E023D061E082E06D
:1014B00020D063E083E01DD066E47AE08DE008DCB4
:1014C00064E87AE08CE004DC21E040E06AE087E058
:1014D00070DE20E040E06CE08AE06BDE21E043E07B
:1014E00068E081E066DE20E044E063E082E061DE07
:1014F000B8CCE82FF0E0EE0FFF1FE35EFC4F28E0D2
:101500004AE08081918107CC89E992E09F938F9393
:101510007FDE0F900F900895FAD901C053D922DAD7
:101520008823E9F329D9C82F803AC0F782E0C0DBCD
:10153000FC018C2F1995F2CF97FB072E16F400941F
:1015400006D077FD08D013D007FC05D03EF4909567
:1015500081959F4F0895709561957F4F0895EE0F87
:10156000FF1F881F8BBF0790F691E02D1994AA1BCF
:10157000BB1B51E107C0AA1FBB1FA617B70710F07E
:10158000A61BB70B881F991F5A95A9F780959095B0
:10159000BC01CD0108955F926F927F928F929F92CE
:1015A000AF92BF92CF92DF92EF92FF920F931F9371
:1015B000CF93DF93CDB7DEB72F970FB6F894DEBF8A
:1015C0000FBECDBF6C017B018A01DC0117961C9216
:1015D0001E92169713968C9181FFF1C12AE0522E2C
:1015E000F6019381F70193FD859193FF81917F012E
:1015F000882309F471C0853239F493FD859193FFF6
:1016000081917F01853221F4B60190E0F1D1E8CFDC
:10161000912C612C712CFFE1F71508F445C08B3239
:10162000C1F1F0F48032B9F1833209F43AC0833663
:1016300009F49AC0833709F4A3C0833509F0C3C005
:10164000F801A190B1908F01692D70E076FC02C085
:101650006FEF7FEFC501B6D14C01689477F871C088
:101660008D32E1F0803351F020ED280F2A3048F11F
:101670008E3209F04BC0689476F802C0689470F816
:10168000F70193FD859193FF81917F018111C3CF74
:1016900045C0689471F8689472F8F2CF689473F852
:1016A000EFCF689474F8ECCF77FC38C020ED280FAA
:1016B0002A3070F476FE05C0959C200D1124922EE0
:1016C000DFCF659C200D1124622E689475F8D8CF69
:1016D0008E32E1F476FECFCFD60116968D919C9195
:1016E0002F960FB6F894DEBF0FBECDBFDF91CF911E
:1016F0001F910F91FF90EF90DF90CF90BF90AF9030
:101700009F908F907F906F905F9008958C3619F422
:10171000689477F8B5CF883609F4B2CF982F9F7DBB
:101720009554933008F083CF0C5F1F4F8FE389836C
:1017300088248394912CAE014F5F5F4F5A01E89447
:1017400077F873FC05C0862D90E08816990630F175
:101750008114910449F5662009F442CFB60180E274
:1017600090E046D16A94F7CFD8018C9189830E5FBF
:101770001F4F88248394912CFE0131965F01DFCFA7
:10178000D801AD90BD908D01692D70E076FC02C04E
:101790006FEF7FEFC50121D14C01D1CFB60180E2BF
:1017A00090E026D16A94CFCFF50177FC859177FE42
:1017B00081915F01B60190E01BD161106A94F1E064
:1017C0008F1A9108C5CF843619F0893609F07DC08B
:1017D000F80177FE73C061917191819191918F01B0
:1017E000272D2F76822E97FF09C0909580957095B2
:1017F00061957F4F8F4F9F4F689487F82AE030E0C4
:10180000AE014F5F5F4F5A0123D18A19A82EBA2C1F
:10181000782C86FE0CC0E89470F8A91440F484FE7D
:1018200005C082FC03C0782D7E7E772EB92C74FE15
:10183000A1C0FE01EA0DF11D8081803309F093C043
:10184000872D897E782E73FC0EC070FEA1C09A2C65
:10185000B61418F4960C9B18B62C862D8B196B14A5
:1018600008F480E0B80EB61408F094C06B1874FE4B
:1018700093C0B60180E390E0BBD072FE08C088E55B
:1018800090E071FC02C088E790E0B601B1D0A914E5
:1018900008F48FC0AA94B12C9FEFA91AB90ADE01EF
:1018A00011964D01AA0EBB1EF50182915F01B60192
:1018B00090E09ED08A149B04B9F74DCF619171914D
:1018C000072E000C880B990B8ACF872CE89484F89C
:1018D0002AE030E0853769F0572D597F852E803713
:1018E00069F110F5883569F18F3609F0F5CE28E0F9
:1018F00030E0F80187FE2DC081919191A191B191C5
:101900008C879D87AE87BF878F01BE016F5F7F4F3A
:101910005B01AB016C857D858E859F8599D08A1989
:10192000A82EE89487F873CF883709F0D5CE84FEC7
:1019300002C0689482F820E130E0DBCF689484F83C
:10194000F6CF74FE03C0652F6660862E20E132E07C
:10195000D0CF81919191AC0160E070E04C875D87C0
:101960006E877F87D1CF72FC02C0B3946CCFB394E3
:10197000B39469CF872D8678882309F464CFF5CF97
:10198000B60180E290E034D083948614C8F365CF2A
:101990008B2CFBCF612C6BCF872D8678882309F4A5
:1019A00076CF8BE271FE80E277FC8DE2B60190E0AB
:1019B0006DCFB60180E390E01BD09A9468CF8FEF93
:1019C0009FEF8ECEFC010590615070400110D8F75A
:1019D000809590958E0F9F1F0895FC016150704077
:1019E00001900110D8F7809590958E0F9F1F089554
:1019F0000F931F93CF93DF93182F092FEB018B8148
:101A000081FD09C01FEF0FEF812F902FDF91CF9144
:101A10001F910F91089582FF14C02E813F818C8108
:101A20009D81281739073CF4E881F981CF0101969F
:101A30009983888310838E819F8101969F838E83F3
:101A4000E3CFE885F985812F1995892BA1F3DACFAA
:101A5000FA01AA27283051F1203181F1E8946F93DF
:101A60006E7F6E5F7F4F8F4F9F4FAF4FB1E03ED085
:101A7000B4E03CD0670F781F891F9A1FA11D680F23
:101A8000791F8A1F911DA11D6A0F711D811D911D56
:101A9000A11D20D009F468943F912AE0269F1124CB
:101AA0003019305D3193DEF6CF010895462F47702F
:101AB000405D4193B3E00FD0C9F7F6CF462F4F708A
:101AC000405D4A3318F0495D31FD4052419302D0E8
:101AD000A9F7EACFB4E0A69597958795779567958E
:101AE000BA95C9F700976105710508959B01AC018E
:101AF0000A2E06945795479537952795BA95C9F7B5
:101B0000620F731F841F951FA01D0895F894FFCFC7
:101B100070035203530354035503560357037003D2
:101B2000580359035A035B035D035C035E036003C0
:101B300062036403660368036A036C036E03700345
:101B400072037403760378037A037C037E038003B5
:101B500082038F03980398039803900391039803DB
:0C1B6000920393039403950397039603EC
:101B6C00C9040000CA040000D1040000D90400001C
:101B7C00E1040000E8040000F0040000F804000098
:101B8C00FF04000007050000B7040000BD040000BE
:101B9C00C30400000000000200000000AD030000C0
:101BAC00000000010201030303035B4B65796D61C7
:101BBC00703A20636C61737369635D0A00BC012C1D
:101BCC00017401E4005B4B65796D61703A204170E2
:101BDC00706C6520322028752F6C20636173652929
:101BEC005D005B4B65796D61703A204170706C657E
:101BFC00203220434150535D00313047455441243D
:101C0C002830293A413D4153432841242830292981
:101C1C003A41242831293D2243544C2B222B434852
:101C2C0052242841202B203634293A3F2227223BAC
:101C3C00412428413C3332293B2227203D20223BA2
:101C4C00413A4946413C3E33474F544F31300D00E9
:101C5C0024034C02DC02940204025B4B657962643F
:101C6C003A20536F6C2D32305D005B4B65796D61A2
:101C7C00703A20616365313030305D0A00FC055CE0
:061C8C0005AC050C05008B
:00000001FF
