:1000000047C2000061C200005FC200005DC2000084
:100010005BC2000059C2000057C2000055C2000078
:1000200053C2000051C200004FC200004DC2000088
:100030004BC2000049C200008BC3000045C2000053
:1000400043C2000041C200003FC200003DC20000A8
:100050003BC2000039C2000037C2000035C20000B8
:1000600033C2000031C20000A0A1A1A01B09A51C41
:10007000A010A0A0201A0111B12C0D0E0216031819
:10008000A00B0A0807060413A00915191412051776
:10009000A0A6A40D0A0F0CA0A01D1BA0A0C0BFBE4F
:1000A00000BDBCBBBAB9B8B7A8A9AAAB0000ADAC3B
:1000B000A0A1A1A01B09A55C7F503B2F205A415154
:1000C000A02C4D4E42564358A04B4A4847464453F5
:1000D000A049555954524557A0A6A40D0A4F4C2E7D
:1000E0007E5D5B2D3A29393840373635343332312D
:1000F000A8A9AAAB0000ADACA0A1A1A01B09A50DA9
:100100007F503A3F205A4151B23C4D4E42564358DF
:10011000A04B4A4847464453A04955595452455765
:10012000A0A6A40D7B4F4C3E7E7D082B5F29282A7C
:1001300022265E2524234021A8A9AAAB0000ADAC4D
:10014000A0A1A1A01B09A50D7F703B2F207A617192
:10015000A02C6D6E62766378A06B6A6867666473C4
:10016000A069757974726577A0A6A40D5B6F6C2E7B
:100170007E5D083D2D3039382737363534333231FE
:10018000A8A9AAAB0000ADACA4A1A1A0A01BA51575
:10019000A010A0A0201A0111A02C0D0E0216031809
:1001A000A00B0A0807060413A00915191412051755
:1001B000A0A0A00DA60F0CA0A0A0B1A0A0C0BFBE83
:1001C00008BDBCBBBAB9B8B7A8A9AAAB0000ADAC12
:1001D000A4A1A1A0A01BA515A0503B2F205A4151BE
:1001E000A02C4D4E42564358A04B4A4847464453D4
:1001F000A049555954524557A0A0A00DA64F4C2ECA
:10020000A0A0A02D3A303938083736353433323192
:10021000A8A9AAAB0000ADACA4A1A1A0A01BA515E4
:10022000A0402B3F205A4151A03C4D5E42564358BE
:10023000A04B4A4847464453A04955595452455744
:10024000A0A0A00DA64F4C3EA0A0B23D2A30292868
:100250000827262524232221A8A9AAAB0000ADAC9B
:10026000A4A1A1A0A01BA515A0502B3F205A41512D
:10027000A03C4D4E42564358A04B4A484746445333
:10028000A049555954524557A0A0A00D404F4C3E8F
:10029000A0A0B23D2A302928082726252423222180
:1002A000A8A9AAAB0000ADACA4A1A1A0A01BA51554
:1002B0007F703B2F207A6171A02C6D6E627663781F
:1002C000A06B6A6867666473A069757974726577F4
:1002D000A0A0A00D5E6F6C2EA0A0A02D3A303938E2
:1002E0000837363534333231A8A9AAAB0000ADAC9B
:1002F000A5A20113040607080A0B0C0B0A7FB1A57F
:10030000A4A11A180316020E0D0C0E0FA180A0A0B6
:100310001B010203040506070809000D1E1B1C1D16
:10032000B20911170512141915090F10000D0A8CC6
:10033000A8A9AAAB0000ADACB3978120939A8E8B8D
:100340002D372A382F39A0A0343135323633A0A0CA
:10035000302E2BA0A0A0A0A0A5A241534446474800
:100360004A4B4C3B3A5FA6A5A4A15A584356424E6D
:100370004D3C3E3FA180A0A01B21222324252627FF
:100380002829203D7E5B5C5DB20951574552545986
:1003900055494F50600D0A8CA8A9AAAB0000ADAC1E
:1003A000B3978120939A8E8B2D372A382F39A0A0AE
:1003B000343135323633A0A0302E2BA0A0A0A0A01F
:1003C000A5A24153444647484A4B4C3B3A7FA6A519
:1003D000A4A15A584356424E4D2C2E2FA180A0A0C6
:1003E0001B313233343536373839302D5E5B5C5D46
:1003F000B20951574552545955494F50400D0A8C36
:10040000A8A9AAAB0000ADACB3978120939A8E8BBC
:100410002D372A382F39A0A0343135323633A0A0F9
:10042000302E2BA0A0A0A0A0A5A26173646667686F
:100430006A6B6C3B3A7FA6A5A4A17A786376626E5C
:100440006D2C2E2FA180A0A01B31323334353637CE
:100450003839302D5E5B5C5DB209717765727479F5
:1004600075696F70400D0A8CA8A9AAAB0000ADACED
:10047000B3978120939A8E8B2D372A382F39A0A0DD
:10048000343135323633A0A0302E2BA0A0A0A0A04E
:1004900011241FBECFEFD8E0DEBFCDBF12E0A0E039
:1004A000B1E0E8E7FAE102C005900D92A033B10790
:1004B000D9F723E0A0E3B2E001C01D92A43CB2074B
:1004C000E1F79AD70C940C0D9BCD805A813208F03D
:1004D0000895E82FF0E0E25FF24FB0C784E09BC2DE
:1004E0008DE099C28CE097C28BE095C28AE093C2FE
:1004F00089E091C288E08FC287E08DC286E08BC21E
:1005000085E089C286E0E6C585E0E4C584E0E2C511
:1005100083E0E0C582E0DEC581E0DCC589E0DAC5C4
:1005200088E0D8C587E0D6C56BC11BC5D3C393C3CC
:1005300053C313C32CC53CC42FC423C41AC413C44F
:10054000815A8D3008F00895E82FF0E0E15DF24F18
:1005500075C732C436C433C5E1C21FC35DC39BC374
:10056000ECC451C1CF93C82F8A3041F06C2F8091D9
:1005700032020CD28C2F90E0CF9108956DE08091E3
:10058000320204D2F3CFCF938091320221D2C82F0E
:10059000803A41F0809130029091310246D18C2F07
:1005A000CF91089580913302CF9112C290E0909341
:1005B00031028093300208955F926F927F928F9202
:1005C0009F92AF92BF92CF92DF92EF92FF920F93E2
:1005D0001F93CF93DF9381E02DD25C0183E01BD288
:1005E00000E03AE0732E88248394912C50EA652E23
:1005F00068D2081708F06BC0802FF5010995D82F35
:10060000802F90E09C012B543D4F6901F90110812E
:100610001D27C0E0880F991F880F991F880F991F09
:100620009C012B5C3D4F790105C0811115C01695C9
:10063000D695CF5F51D2C81708F044C08D2F817076
:1006400010FFF3CFF701EC0FF11D90812FEF290F71
:100650009130F9F02083EBCFB7D3482F6C2F802F48
:1006600059D3909134029813E2CFB6D48823F9F28B
:1006700050903402F0EAF51510F1652D80913302A7
:1006800085D180913402581691F2509234024CD4A4
:10069000CECF7082F601908194010C2E01C0220F02
:1006A0000A94EAF7882319F1922B90838DD3482F6F
:1006B0006C2F802F2FD3582EF0EAF817F0F6852DE7
:1006C00004DFB5CF0F5FFDD1081708F495CFDF9198
:1006D000CF911F910F91FF90EF90DF90CF90BF903F
:1006E000AF909F908F907F906F905F90089520952E
:1006F0002923208369D3482F6C2F802F0BD3813A75
:1007000038F490913402981392CF609234028FCFD4
:1007100017DF8DCF80EA8093340204D1F6D3E7D17E
:1007200080E190E006D18093330280E890E001D12F
:1007300080933202E5EBF2E080E1DF011D928A95C1
:10074000E9F740E850E06AE070E085E392E090C6A7
:100750008F9381E08093C6028F9118958091C60295
:100760001092C6020895882311F044980895449A7F
:100770000895882311F02D9A08952D9808958823BF
:1007800011F02C9A08952C980895882319F0459A11
:100790003D9A089545983D9A0895882319F03D980B
:1007A000459A089545983D9A0895882319F0459AE9
:1007B0003D9A08953D9845980895882319F02B98FF
:1007C000239A08952B9A239A0895089508950895D9
:1007D000882319F02F9A279A08952F98279A089519
:1007E000882319F027982F9A08952F98279A08950B
:1007F000882319F02F9A279A089527982F980895FB
:100800002E98269A08952E9A269A08958AE18A9516
:10081000F1F700C008952FE788E391E02150804070
:100820009040E1F700C0000008959C01892B61F021
:1008300080E090E0EFECF7E03197F1F700C00000C6
:10084000019628173907B1F70895F8941092C60257
:1008500087E0809361001092C6028CE787BD15BCCB
:1008600082E084BD80936E0083E085BD8091C502E7
:100870008BB98FEF8AB91092C5022E98269A3C9AAE
:10088000259A249A3C9A259A249A88B1807F88B91F
:1008900087B18F6087B92A98229A299A219A20983D
:1008A00028987894089598B18F70907F892B88B993
:1008B00029982A9A2A98299A20E030E080E093B17A
:1008C0009095492F417050E0BA01022E01C0660F89
:1008D0000A94EAF7862B2A9A2A982F5F3F4F2830EE
:1008E000310569F708959091C50289278BB91E9A41
:1008F0008AE18A95F1F700C01E9A0895833049F085
:1009000028F4813041F0823029F4A1C4843011F4FC
:1009100035C5D0C42DC45EC4982F81E0953008F051
:1009200080E008951092C9021092C8021092C70286
:1009300008959C018091C702843034F56091C8020B
:100940007091C90240E950E0461B570B421753070C
:10095000DCF091E0980F9093C70297E08902F001D4
:100960001124E653FD4F33832283AB014A515D4F7F
:1009700051834083148215821682260F371F3093CD
:10098000C9022093C80208958FEF089587FD1FC004
:100990009091C7028917DCF497E08902F0011124D5
:1009A000E653FD4F268142815381822F90E08417C8
:1009B00095076CF4848190E0A081B181A80FB91FE4
:1009C0006C930196BA0127D584832F5F26830895FF
:1009D00087FD04C09091C70289171CF020EA822F7E
:1009E000089597E08902F0011124E653FD4F368106
:1009F0003323A1F3858190E0A081B181A80FB91FB5
:100A00002C9101966281738106D58583315036839E
:100A1000822F089508959FEF980F9D3050F4E82F8E
:100A2000F0E0EE0FFF1FEA58FC4F0190F081E02D3F
:100A3000099408959FEF980F9D3048F4E82FF0E057
:100A4000EE0FFF1FEA58FC4F8081918108958AE0E4
:100A500095E008959FEF980F9D3040F4E82FF0E067
:100A6000EE0FFF1FEA58FC4F608371830895E6E79D
:100A7000F3E08AE095E08193919323E0E239F20775
:100A8000D1F783E594E0909379038093780383E72B
:100A900094E090937B0380937A030895643080F40C
:100AA000413170F4293060F4E62FF0E0EE0FFF1FC3
:100AB000EE0FFF1FED56FC4F80839183428323830B
:100AC000089582D1E82FF0E0EE0FFF1FEE0FFF1F19
:100AD000ED56FC4F8281089577D1E82FF0E0EE0FBC
:100AE000FF1FEE0FFF1FED56FC4F8381089580E03E
:100AF00013DF811101C0089510929203A6DEE3E98D
:100B0000F3E01182108212821382349683E0E33A7A
:100B1000F807B9F709D3ABDF80E0F0CECF93C091EF
:100B20009203C0FD02C0CF910895CE7F8C2FF4DEDA
:100B30008823C9F3C093920388DEE3E9F3E01182CE
:100B4000108212821382349683E0E33AF807B9F7F1
:100B5000EBD28DDF8C2FCF91D1CECF9380919203AA
:100B6000C82FC1608C1302C0CF9108958C2FD4DEA2
:100B70008823D1F3C093920368DEE3E9F3E01182A6
:100B8000108212821382349683E0E33AF807B9F7B1
:100B9000CBD26DDF8C2FCF91B1CECF93C09192038A
:100BA000C1FD02C0CF910895CD7F8C2FB5DE882383
:100BB000C9F3C093920349DEE3E9F3E011821082A6
:100BC00012821382349683E0E33AF807B9F7ACD285
:100BD0004EDF8C2FCF9192CECF9380919203C82F6E
:100BE000C2608C1302C0CF9108958C2F95DE8823AC
:100BF000D1F3C093920329DEE3E9F3E0118210827E
:100C000012821382349683E0E33AF807B9F78CD264
:100C10002EDF8C2FCF9172CECF93C0919203C2FD65
:100C200002C0CF910895CB7F8C2F76DE8823C9F345
:100C3000C09392030ADEE3E9F3E01182108212828C
:100C40001382349683E0E33AF807B9F76DD20FDFE9
:100C50008C2FCF9153CECF9380919203C82FC46035
:100C60008C1302C0CF9108958C2F56DE8823D1F3C8
:100C7000C0939203EADDE3E9F3E01182108212826D
:100C80001382349683E0E33AF807B9F74DD2EFDEEA
:100C90008C2FCF9133CECF93C0919203C3FD02C06E
:100CA000CF910895C77F8C2F37DE8823C9F3C09377
:100CB0009203CBDDE3E9F3E011821082128213820A
:100CC000349683E0E33AF807B9F72ED2D0DE8C2FC2
:100CD000CF9114CECF9380919203C82FC8608C130C
:100CE00002C0CF9108958C2F17DE8823D1F3C093D3
:100CF0009203ABDDE3E9F3E01182108212821382EA
:100D0000349683E0E33AF807B9F70ED2B0DE8C2FC1
:100D1000CF91F4CD982FA0919203B0E0AA0FBB1F02
:100D2000AA0FBB1FAD56BC4F13968C911397882307
:100D3000C9F012962C912223A1F0E42FF0E0EE0FDF
:100D4000FF1FEE0FFF1FED56FC4F70E0899F600DF7
:100D5000711D11240190F081E02DE60FF71F8491A1
:100D6000089580E0089581E08093A50362E08BE020
:100D70004CC18091A50382608093A50361E08BE064
:100D800044C18091A50392E089278093A50361E087
:100D900081FF62E08BE039C19091A40381E0892753
:100DA0008093A40361E0913009F462E08AE02DC1F0
:100DB00081E08093A30308951092A50362E08BE085
:100DC00024C11092A3030895E1E08091A50381114D
:100DD00001C0E0E08091A4038111E2608091A3034F
:100DE0008111E460F0E0EE5BFE4F80810895CF93C7
:100DF000DF93C82FD0E0CC0FDD1FCC0FDD1FC0501C
:100E0000DF4FE881F98181E0099581E08A83DF91F4
:100E1000CF910895CF93DF93C82FD0E0CC0FDD1F83
:100E2000CC0FDD1FC050DF4FE881F98180E00995CC
:100E30001A82DF91CF9108951F93CF93DF93C82F2C
:100E4000D0E0CC0FDD1FCC0FDD1FFE01E050FF4FC7
:100E500011E08281811110E0C050DF4FE881F981FB
:100E6000812F09951A83DF91CF911F910895E82F63
:100E7000F0E0EE0FFF1FEE0FFF1FE050FF4F8381EA
:100E80000895582F80910301882391F0581303C0CF
:100E900027C0581771F0282F30E0982F220F331FEA
:100EA000220F331FF901E050FF4F83818111F1CFF1
:100EB000089581508C30B8F49D30A9F0E52FF0E012
:100EC000EE0FFF1FEE0FFF1FE050FF4F83812050FA
:100ED0003F4FD90113968C936383428381E0089539
:100EE00081508C3010F080E0089520E030E0E6CFB3
:100EF000E2E0F1E080E091E090838F5F81833496BF
:100F00008D30D1F71092330108958DE092E09093E7
:100F1000A9038093A8039093AB038093AA039093B3
:100F2000A7038093A60308958091AA039091AB0331
:100F30009093A7038093A60308951092A90310929B
:100F4000A8038091AA039091AB038234910541F0EC
:100F50001092AB031092AA031092A7031092A6035B
:100F600008958DE092E09093A9038093A8032091C7
:100F7000AA033091AB032234310541F09093AB03C7
:100F80008093AA039093A7038093A603089580916A
:100F9000A6039091A7038334910530F48091AA03AE
:100FA0009091AB03892B51F482E490E09093AB03D2
:100FB0008093AA039093A7038093A603089580913A
:100FC000A8039091A9039093AB038093AA039093F5
:100FD000A7038093A60308958091A6039091A70389
:100FE000009789F09C0121503109019741F482E476
:100FF00090E09093A7038093A60381E00895309337
:10100000A7032093A60380E00895CF93DF93E82FF2
:10101000F0E0EE0FFF1FE455FC4FC081633051F14B
:1010200080F0643009F43BC0653031F007C08C2F8C
:1010300003DF8C2F1CDFC82FC111F9CFDF91CF91B7
:101040000895613091F0623031F0F8CF8C2FE2DEFC
:101050008C2F0DDFC82FC111F9CFDF91CF910895EB
:101060008C2FC5DE8C2F03DFC82FC111F9CFDF9184
:10107000CF910895DC2FCC2339F18D2FDDDE8D2F1C
:10108000F6DED82F8111F9CFC1DB8C2FD5DE8C2F66
:10109000EEDEC82F8111F9CFDF91CF910895DC2FBB
:1010A000CC23A9F08D2FC8DE8D2FE1DED82F811142
:1010B000F9CFB1DB8C2FC0DE8C2FD9DEC82F811188
:1010C000F9CFDF91CF910895DF91CF919FCBDF9141
:1010D000CF91A1CBE82FF0E0EE0FFF1FE455FC4FBE
:1010E000618193CF0F931F93CF93DF93162F042F1C
:1010F0009FEF980F9B3028F0DF91CF911F910F91B8
:101100000895C82FD0E0CC0FDD1FC455DC4F422F0F
:101110006881812FB6DE882379F318830983DF91F4
:10112000CF911F910F910895E3DEECEAF3E0118275
:101130001082329683E0E43CF807C9F70895CF9314
:10114000DF93CDB7DEB7AE014B5F5F4FFA01619120
:101150007191AF0184E391E092D1DF91CF91089535
:101160008AE491E09F938F93EADF0F900F900895A8
:1011700088E21CDA60E080E057D062E081E054D081
:1011800061E082E051D063E083E04ED060EB78E034
:101190008DE060DC64E879E08CE05CDC21E040E03C
:1011A0006AE087E09FDF20E040E06CE08AE09ADFC1
:1011B00021E043E068E081E095DF20E044E063E087
:1011C00082E090CF8AE491E09F938F93B8DF0F90F5
:1011D0000F90089588E2EAD960E081E025D062E0CE
:1011E00081E022D061E082E01FD063E083E01CD088
:1011F00062EE78E08DE02EDC64E879E08CE02ADCB9
:1012000021E040E06AE087E06DDF20E040E06CE054
:1012100087E068DF21E043E068E081E063DF20E011
:1012200044E063E082E05ECFE82FF0E0EE0FFF1FC6
:10123000E35AFE4F28E049E0808191812FCC85E67A
:1012400091E09F938F937BDF0F900F90089588E23A
:10125000ADD960E080E07FD062E081E07CD061E0E9
:1012600082E079D063E084E076D064E879E08CE0D5
:10127000F1DB6FE179E08DE0EDDB20E040E06AE05A
:101280008AE030DF20E040E06CE088E02BDF21E006
:1012900043E068E081E026DF20E044E063E082E0B4
:1012A00021DF7ACD82E891E09F938F9348DF0F9002
:1012B0000F90089588E27AD960E081E04CD062E036
:1012C00081E049D061E083E046D063E084E043D030
:1012D00064E879E08CE0BEDB62E579E08DE0BADBC2
:1012E00020E040E06AE087E0FDDE20E040E06CE0E6
:1012F00088E0F8DE21E043E068E081E0F3DE20E012
:1013000044E063E082E0EECE89E991E09F938F9321
:1013100016DF84EA91E09F938F9311DF84EB91E0D5
:101320009F938F930CDF8EED91E09F938F9307DF58
:1013300084EF91E09F938F9302DF8AE092E09F9386
:101340008F93FDDE8DB79EB70C960FB6F8949EBFB7
:101350000FBE8DBF0895E82FF0E0EE0FFF1FEA5E8D
:10136000FD4F28E049E08081918198CB80E292E0B6
:101370009F938F93E4DE0F900F90089528E04DE047
:1013800060E088E294E08ADB28E04DE062E080ECF7
:1013900093E084DB28E04DE061E088E593E07EDBCC
:1013A00028E04DE063E080EF92E078DB88E2FED851
:1013B00020E040E06AE08AE095DE20E040E06CE07A
:1013C0008BE090DE21E045E061E083E08BDE20E011
:1013D00045E06BE083E086DE21E043E068E081E009
:1013E00081DE21E044E064E082E07CDED5DC0BDAE3
:1013F00066EB79E08DE02ECB8DD9B0D98823E9F367
:10140000C2D8C82F803A29F082E014DBFC018C2F6F
:101410000995D2D8F2CF97FB072E16F4009406D088
:1014200077FD08D011D007FC05D03EF4909581954A
:101430009F4F0895709561957F4F0895EE0FFF1FA0
:101440000590F491E02D0994AA1BBB1B51E107C044
:10145000AA1FBB1FA617B70710F0A61BB70B881F44
:10146000991F5A95A9F780959095BC01CD010895D3
:10147000DC0101C06D9341505040E0F70895AFE0AA
:10148000B0E0E4E4FAE094C26C017B018A01DC0183
:1014900017961C921E92169713968C9181FFDEC1AF
:1014A0002AE0522EF6019381F70193FD859193FF77
:1014B00081917F01882309F471C0853239F493FD4D
:1014C000859193FF81917F01853221F4B60190E0EF
:1014D000DED1E8CF912C612C712CFFE1F71508F4D7
:1014E00045C08B32C1F1F0F48032B9F1833209F496
:1014F0003AC0833609F487C0833709F490C0833536
:1015000009F0B0C0F801A190B1908F01692D70E091
:1015100076FC02C06FEF7FEFC501A3D14C01689448
:1015200077F85EC08D32E1F0803351F020ED280F66
:101530002A3048F18E3209F038C0689476F802C03B
:10154000689470F8F70193FD859193FF81917F0175
:101550008111C3CF32C0689471F8689472F8F2CFE9
:10156000689473F8EFCF689474F8ECCF77FC25C0DB
:1015700020ED280F2A3070F476FE05C0959C200DD2
:101580001124922EDFCF659C200D1124622E6894C9
:1015900075F8D8CF8E3249F476FECFCFD6011696A5
:1015A0008D919C912F96EFE01FC28C3619F46894B0
:1015B00077F8C8CF883609F4C5CF982F9F7D95540A
:1015C000933008F096CF0C5F1F4F8FE389838824F8
:1015D0008394912CAE014F5F5F4F5A01E89477F8E6
:1015E00073FC05C0862D90E08816990630F18114B1
:1015F000910449F5662009F455CFB60180E290E0E8
:1016000046D16A94F7CFD8018C9189830E5F1F4F22
:1016100088248394912CFE0131965F01DFCFD8019D
:10162000AD90BD908D01692D70E076FC02C06FEF2A
:101630007FEFC50121D14C01D1CFB60180E290E00E
:1016400026D16A94CFCFF50177FC859177FE819101
:101650005F01B60190E01BD161106A94F1E08F1A2E
:101660009108C5CF843619F0893609F07DC0F8019C
:1016700077FE73C061917191819191918F01272DB6
:101680002F76822E97FF09C0909580957095619571
:101690007F4F8F4F9F4F689487F82AE030E0AE016C
:1016A0004F5F5F4F5A0123D18A19A82EBA2C782C8C
:1016B00086FE0CC0E89470F8A91440F484FE05C0BE
:1016C00082FC03C0782D7E7E772EB92C74FEA1C0DB
:1016D000FE01EA0DF11D8081803309F093C0872D52
:1016E000897E782E73FC0EC070FEA1C09A2CB614B1
:1016F00018F4960C9B18B62C862D8B196B1408F4D5
:1017000080E0B80EB61408F094C06B1874FE93C055
:10171000B60180E390E0BBD072FE08C088E590E09F
:1017200071FC02C088E790E0B601B1D0A91408F4BA
:101730008FC0AA94B12C9FEFA91AB90ADE011196A5
:101740004D01AA0EBB1EF50182915F01B60190E02A
:101750009ED08A149B04B9F74DCF61917191072EE9
:10176000000C880B990B8ACF872CE89484F82AE028
:1017700030E0853769F0572D597F852E803769F124
:1017800010F5883569F18F3609F008CF28E030E090
:10179000F80187FE2DC081919191A191B1918C8723
:1017A0009D87AE87BF878F01BE016F5F7F4F5B0153
:1017B000AB016C857D858E859F8599D08A19A82E71
:1017C000E89487F873CF883709F0E8CE84FE02C02A
:1017D000689482F820E130E0DBCF689484F8F6CF9B
:1017E00074FE03C0652F6660862E20E132E0D0CF04
:1017F00081919191AC0160E070E04C875D876E87CC
:101800007F87D1CF72FC02C0B3946CCFB394B394F2
:1018100069CF872D8678882309F464CFF5CFB60188
:1018200080E290E034D083948614C8F365CF8B2C8B
:10183000FBCF612C6BCF872D8678882309F476CF78
:101840008BE271FE80E277FC8DE2B60190E06DCF15
:10185000B60180E390E01BD09A9468CF8FEF9FEFA2
:10186000A1CEFC010590615070400110D8F7809521
:1018700090958E0F9F1F0895FC016150704001905C
:101880000110D8F7809590958E0F9F1F08950F93A4
:101890001F93CF93DF93182F092FEB018B8181FDCD
:1018A00009C01FEF0FEF812F902FDF91CF911F9174
:1018B0000F91089582FF14C02E813F818C819D81FC
:1018C000281739073CF4E881F981CF010196998303
:1018D000888310838E819F8101969F838E83E3CFBF
:1018E000E885F985812F0995892BA1F3DACFFA01D3
:1018F000AA27283051F1203181F1E8946F936E7F4F
:101900006E5F7F4F8F4F9F4FAF4FB1E03ED0B4E03F
:101910003CD0670F781F891F9A1FA11D680F791F80
:101920008A1F911DA11D6A0F711D811D911DA11D91
:1019300020D009F468943F912AE0269F11243019A1
:10194000305D3193DEF6CF010895462F4770405D3C
:101950004193B3E00FD0C9F7F6CF462F4F70405DEB
:101960004A3318F0495D31FD4052419302D0A9F746
:10197000EACFB4E0A6959795879577956795BA9540
:10198000C9F700976105710508959B01AC010A2E06
:1019900006945795479537952795BA95C9F7620FDD
:1019A000731F841F951FA01D08952F923F924F9281
:1019B0005F926F927F928F929F92AF92BF92CF92DF
:1019C000DF92EF92FF920F931F93CF93DF93CDB7E8
:1019D000DEB7CA1BDB0B0FB6F894DEBF0FBECDBF60
:1019E00009942A88398848885F846E847D848C8431
:1019F0009B84AA84B984C884DF80EE80FD800C813A
:101A00001B81AA81B981CE0FD11D0FB6F894DEBF1C
:101A10000FBECDBFED010895F894FFCF6E029F0277
:101A20009E029D029C029B029A026E0299029802FB
:101A30009702960295029402920290028E028C0204
:101A40008A0288028602840282026E0280027E027C
:101A50007C027A0278027602740272027002A90293
:101A6000A302A302A302AA02AB02A302AC02AD022C
:081A7000AE02AF02B002B102A8
:101A7800E5030000C5030000CD030000D503000006
:101A8800DD030000E6030000E7030000E8030000B0
:101A9800F0030000F8030000B3030000B9030000DE
:101AA800BF0300000000000200000000B2020000B6
:101AB800000000010201030303035B4B65796D61BC
:101AC800703A20636C61737369635D0A004001B00A
:101AD80000F80068005B4B65796D61703A204170D1
:101AE800706C6520322028752F6C2063617365291E
:101AF8005D005B4B65796D61703A204170706C6573
:101B0800203220434150535D003130204745542056
:101B180041240D0032302041203D204153432841CB
:101B280024290D0033302049462041203C203332FF
:101B3800205448454E2041243D2243544C2B222B0F
:101B4800434852242841202B203634290D003430B4
:101B5800203F2227223B41243B2227203D20223BB5
:101B6800413A0D0035302049462041203C3E203383
:101B780020474F544F2031300D00363020454E4419
:101B88000D52554E0D00A802D001600218028801BE
:101B98005B4B657962643A20536F6C2D32305D007F
:00000001FF
