:1000000085C20000A3C20000A1C200009FC2000080
:100010009DC200009BC2000099C2000097C2000070
:1000200095C2000093C2000091C200008FC2000080
:100030008DC200008BC2000089C2000087C2000090
:1000400085C2000083C2000081C200007FC20000A0
:100050007DC20000C3C3000079C2000077C2000067
:1000600075C2000073C2000071C200006FC20000C0
:100070006DC200006BC2000069C2000067C20000D0
:1000800065C2000063C2000061C200005FC20000E0
:100090005DC200005BC2000059C2000057C20000F0
:1000A00055C2000053C2000051C200004FC2000000
:1000B0004DC200004BC2000049C2000047C2000010
:1000C00045C2000043C2000041C200003FC2000020
:1000D0003DC200003BC2000039C2000037C2000030
:1000E00035C20000A0A1A1A07F09A51CA010A0A05E
:1000F000021A0111B12C0D0E02160318A00B0A08EA
:1001000007060413A009151914120517A0A6A40DBB
:100110000A0F0CA0A01D7FA0A0C0BFBE00BDBCBB2D
:10012000BAB9B8B7A8A9AAAB0000ADACA0A1A1A06C
:100130001B09A55C7F503B2F205A4151A02C4D4EEE
:1001400042564358A04B4A4847464453A049555944
:1001500054524557A0A6A40D0A4F4C2E7E5D5B2D30
:100160003A2939384037363534333231A8A9AAAB69
:100170000000ADACA0A1A1A01B09A50D7F503A3F86
:10018000205A4151B23C4D4E42564358A04B4A482A
:1001900047464453A049555954524557A0A6A40D6B
:1001A0007B4F4C3E7E7D082B5F29282A22265E2528
:1001B00024234021A8A9AAAB0000ADACA0A1A1A016
:1001C0001B09A50D7F703B2F207A6171A02C6D6EED
:1001D00062766378A06B6A6867666473A0697579F4
:1001E00074726577A0A6A40D5B6F6C2E7E5D083DD2
:1001F0002D3039382737363534333231A8A9AAABF8
:100200000000ADACA4A1A1A0A01BA515A010A0A0AA
:10021000201A0111A02C0D0E02160318A00B0A08BB
:1002200007060413A009151914120517A0A0A00DA4
:10023000A60F0CA0A0A0B1A0A0C0BFBE08BDBCBBB3
:10024000BAB9B8B7A8A9AAAB0000ADACA4A1A1A047
:10025000A01BA515A0503B2F205A4151A02C4D4E5C
:1002600042564358A04B4A4847464453A049555923
:1002700054524557A0A0A00DA64F4C2EA0A0A02DD3
:100280003A3039380837363534333231A8A9AAAB79
:100290000000ADACA4A1A1A0A01BA515A0402B3FC0
:1002A000205A4151A03C4D5E42564358A04B4A480B
:1002B00047464453A049555954524557A0A0A00D54
:1002C000A64F4C3EA0A0B23D2A302928082726255B
:1002D00024232221A8A9AAAB0000ADACA4A1A1A00F
:1002E000A01BA515A0502B3F205A4151A03C4D4EBC
:1002F00042564358A04B4A4847464453A049555993
:1003000054524557A0A0A00D404F4C3EA0A0B23D76
:100310002A3029280827262524232221A8A9AAAB88
:100320000000ADACA4A1A1A0A01BA5157F703B2F20
:10033000207A6171A02C6D6E62766378A06B6A681A
:1003400067666473A069757974726577A0A0A00D63
:100350005E6F6C2EA0A0A02D3A30393808373635A4
:1003600034333231A8A9AAAB0000ADACA5A2011369
:10037000040607080A0B0C0B0A7FB1A5A4A11A18E2
:100380000316020E0D0C0E0FA180A0A01B0102038C
:10039000040506070809000D1E1B1C1DB2091117D4
:1003A0000512141915090F10000D0A8CA8A9AAAB83
:1003B0000000ADACB3978120939A8E8B2D372A38ED
:1003C0002F39A0A0343135323633A0A0302E2BA0E7
:1003D000A0A0A0A0A5A24153444647484A4B4C3B8D
:1003E0003A5FA6A5A4A15A584356424E4D3C3E3F03
:1003F000A180A0A01B212223242526272829203DD7
:100400007E5B5C5DB20951574552545955494F5076
:10041000600D0A8CA8A9AAAB0000ADACB3978120EF
:10042000939A8E8B2D372A382F39A0A0343135324C
:100430003633A0A0302E2BA0A0A0A0A0A5A241538F
:10044000444647484A4B4C3B3A7FA6A5A4A15A587C
:100450004356424E4D2C2E2FA180A0A01B3132338B
:10046000343536373839302D5E5B5C5DB209515713
:100470004552545955494F50400D0A8CA8A9AAAB72
:100480000000ADACB3978120939A8E8B2D372A381C
:100490002F39A0A0343135323633A0A0302E2BA016
:1004A000A0A0A0A0A5A26173646667686A6B6C3B9C
:1004B0003A7FA6A5A4A17A786376626E6D2C2E2F62
:1004C000A180A0A01B313233343536373839302D76
:1004D0005E5B5C5DB20971776572747975696F7086
:1004E000400D0A8CA8A9AAAB0000ADACB39781203F
:1004F000939A8E8B2D372A382F39A0A0343135327C
:100500003633A0A0302E2BA0A0A0A0A011241FBE87
:10051000CFEFD1E2DEBFCDBF00E00CBF13E0A0E023
:10052000B2E0E6EFFAE100E00BBF02C007900D92E7
:10053000A033B107D9F724E0A0E3B3E001C01D92D6
:10054000A43CB207E1F7A7D70C944B0D59CD805AC4
:10055000813208F00895E82FF0E08827E35BF24F3E
:100560008F4FBBC784E0A6C28DE0A4C28CE0A2C2BC
:100570008BE0A0C28AE09EC289E09CC288E09AC259
:1005800087E098C286E096C285E094C286E0F1C515
:1005900085E0EFC584E0EDC583E0EBC582E0E9C509
:1005A00081E0E7C589E0E5C588E0E3C587E0E1C50E
:1005B0007BC126C5DEC39EC35EC31EC337C547C409
:1005C0003AC42EC425C41EC4815A8D3008F0089543
:1005D000E82FF0E08827E259F24F8F4F7EC73BC4E7
:1005E0003FC43CC5EAC228C366C3A4C3F5C45FC107
:1005F000CF93C82F8A3041F06C2F8091320315D2EF
:100600008C2F90E0CF9108956DE0809132030DD250
:10061000F3CFCF93809132032AD2C82F803A41F092
:10062000809130039091310354D18C2FCF91089554
:1006300080913303CF911BC290E09093310380935C
:10064000300308955F926F927F928F929F92AF9244
:10065000BF92CF92DF92EF92FF920F931F93CF93AF
:10066000DF9381E036D25C0183E024D200E03AE0FF
:10067000732E88248394912C50EA652E71D208172A
:1006800008F06BC0802FF5011995D82F802F90E0CE
:100690009C012B543C4F6901F90110811D27C0E0DA
:1006A000880F991F880F991F880F991F9C012B5C39
:1006B0003C4F790105C0811115C01695D695CF5FC5
:1006C0005AD2C81708F044C08D2F817010FFF3CFA5
:1006D000F701EC0FF11D90812FEF290F9130F9F008
:1006E0002083EBCFC0D3482F6C2F802F62D3909103
:1006F00034039813E2CFBFD48823F9F25090340327
:10070000F0EAF51510F1652D809133038ED18091BB
:100710003403581691F25092340355D4CECF7082E0
:10072000F601908194010C2E01C0220F0A94EAF781
:10073000882319F1922B908396D3482F6C2F802F0A
:1007400038D3582EF0EAF817F0F6852D00DFB5CF34
:100750000F5F06D2081708F495CFDF91CF911F9154
:100760000F91FF90EF90DF90CF90BF90AF909F9050
:100770008F907F906F905F9008952095292320831C
:1007800072D3482F6C2F802F14D3813A38F4909174
:100790003403981392CF609234038FCF15DF8DCF3F
:1007A00080EA809334030DD1FFD3F0D180E190E053
:1007B0000FD18093330380E890E00AD18093320315
:1007C000E5EBF3E080E1DF011D928A95E9F740E86F
:1007D00050E06AE070E085E393E09BC68F9381E090
:1007E0008093C6038F9118958091C6031092C6031B
:1007F0000895882311F05D9808955D9A08958823DF
:1008000011F05E9808955E9A0895882311F05F981C
:1008100008955F9A08950895882319F02D9A259ACE
:1008200008952D98259A0895882319F025982D9AD2
:1008300008952D98259A0895882319F02D9A259AC0
:10084000089525982D980895882319F02E9A269AB0
:1008500008952E98269A0895882319F026982E9A9E
:1008600008952E98269A0895882319F02E9A269A8C
:10087000089526982E980895882319F02F9A279A7C
:1008800008952F98279A0895882319F027982F9A6A
:1008900008952F98279A0895882319F02F9A279A58
:1008A000089527982F9808952C98249A08952C9AA3
:1008B000249A089585E38A95F1F7000008952FEFB3
:1008C00080E792E0215080409040E1F700C00000B6
:1008D00008959C01892B61F080E090E0EFE9FFE052
:1008E0003197F1F700C00000019628173907B1F7DA
:1008F0000895F8941092C60387E0809361001092E7
:10090000C60389EF87BD15BC82E084BD80936E006D
:1009100083E085BD8091C503809302018FEF8093B2
:1009200001011092C5032C98249A559A569A579A09
:1009300081B98093040117B888B978940895282F55
:1009400081E090E0A0E0B0E004C0880F991FAA1FEA
:10095000BB1F2A95D2F780959095A095B09580936E
:10096000050125E12A95F1F70000892F9A2FAB2F79
:10097000BB2782B985E18A95F1F7000086B18095A1
:1009800008959091C5038927809302011C9A85E3FD
:100990008A95F1F700001C9A0895833049F028F4F5
:1009A000813041F0823029F4A1C4843011F435C57E
:1009B000D0C42DC45EC4982F81E0953008F080E04B
:1009C00008951092C9031092C8031092C7030895A6
:1009D0009C018091C703843034F56091C803709105
:1009E000C90340E950E0461B570B42175307DCF0A0
:1009F00091E0980F9093C70397E08902F0011124CA
:100A0000E653FC4F33832283AB014A515C4F518341
:100A10004083148215821682260F371F3093C90334
:100A20002093C80308958FEF089587FD1FC090910C
:100A3000C7038917DCF497E08902F0011124E6531B
:100A4000FC4F268142815381822F90E084179507C5
:100A50006CF4848190E0A081B181A80FB91F6C93E0
:100A60000196BA0127D584832F5F2683089587FDD9
:100A700004C09091C70389171CF020EA822F0895C3
:100A800097E08902F0011124E653FC4F36813323AD
:100A9000A1F3858190E0A081B181A80FB91F2C91AD
:100AA00001966281738106D5858331503683822F0A
:100AB000089508959FEF980F9D3050F4E82FF0E0CF
:100AC000EE0FFF1FEA58FB4F0190F081E02D1994C3
:100AD00008959FEF980F9D3048F4E82FF0E0EE0F57
:100AE000FF1FEA58FB4F80819181089589E595E0C9
:100AF00008959FEF980F9D3040F4E82FF0E0EE0F3F
:100B0000FF1FEA58FB4F608371830895E6E7F4E026
:100B100089E595E08193919324E0E239F207D1F7DA
:100B20008FE994E0909379048093780481EC94E0C9
:100B300090937B0480937A040895643080F441316B
:100B400070F4293060F4E62FF0E0EE0FFF1FEE0F97
:100B5000FF1FED56FB4F80839183428323830895CB
:100B600082D1E82FF0E0EE0FFF1FEE0FFF1FED56D2
:100B7000FB4F8281089577D1E82FF0E0EE0FFF1F41
:100B8000EE0FFF1FED56FB4F8381089580E013DFCA
:100B9000811101C0089510929204ABDEE3E9F4E004
:100BA0001182108212821382349684E0E33AF807AD
:100BB000B9F709D3ABDF80E0F0CECF93C0919204B8
:100BC000C0FD02C0CF910895CE7F8C2FF4DE882324
:100BD000C9F3C09392048DDEE3E9F4E01182108240
:100BE00012821382349684E0E33AF807B9F7EBD225
:100BF0008DDF8C2FCF91D1CECF9380919204C82FCF
:100C0000C1608C1302C0CF9108958C2FD4DE88234D
:100C1000D1F3C09392046DDEE3E9F4E01182108217
:100C200012821382349684E0E33AF807B9F7CBD204
:100C30006DDF8C2FCF91B1CECF93C0919204C1FDC7
:100C400002C0CF910895CD7F8C2FB5DE8823C9F3E4
:100C5000C09392044EDEE3E9F4E011821082128226
:100C60001382349684E0E33AF807B9F7ACD24EDF4A
:100C70008C2FCF9192CECF9380919204C82FC260D7
:100C80008C1302C0CF9108958C2F95DE8823D1F369
:100C9000C09392042EDEE3E9F4E011821082128206
:100CA0001382349684E0E33AF807B9F78CD22EDF4A
:100CB0008C2FCF9172CECF93C0919204C2FD02C00F
:100CC000CF910895CB7F8C2F76DE8823C9F3C09314
:100CD00092040FDEE3E9F4E01182108212821382A3
:100CE000349684E0E33AF807B9F76DD20FDF8C2F22
:100CF000CF9153CECF9380919204C82FC4608C13B0
:100D000002C0CF9108958C2F56DE8823D1F3C09373
:100D10009204EFDDE3E9F4E0118210821282138283
:100D2000349684E0E33AF807B9F74DD2EFDE8C2F22
:100D3000CF9133CECF93C0919204C3FD02C0CF9127
:100D40000895C77F8C2F37DE8823C9F3C0939204A0
:100D5000D0DDE3E9F4E0118210821282138234962E
:100D600084E0E33AF807B9F72ED2D0DE8C2FCF918A
:100D700014CECF9380919204C82FC8608C1302C008
:100D8000CF9108958C2F17DE8823D1F3C09392045E
:100D9000B0DDE3E9F4E0118210821282138234960E
:100DA00084E0E33AF807B9F70ED2B0DE8C2FCF918A
:100DB000F4CD982FA0919204B0E0AA0FBB1FAA0F08
:100DC000BB1FAD56BB4F13968C9113978823C9F068
:100DD00012962C912223A1F0E42FF0E0EE0FFF1FDA
:100DE000EE0FFF1FED56FB4F70E0899F600D711DE8
:100DF00011240190F081E02DE60FF71F84910895F2
:100E000080E0089581E08093A50462E08BE04CC10E
:100E10008091A50482608093A50461E08BE044C1C9
:100E20008091A50492E089278093A50461E081FF69
:100E300062E08BE039C19091A40481E0892780931E
:100E4000A40461E0913009F462E08AE02DC181E000
:100E50008093A30408951092A50462E08BE024C15E
:100E60001092A3040895E1E08091A504811101C0CE
:100E7000E0E08091A4048111E2608091A3048111DB
:100E8000E460F0E0EE5BFD4F80810895CF93DF9347
:100E9000C82FD0E0CC0FDD1FCC0FDD1FC050DE4FC0
:100EA000E881F98181E0199581E08A83DF91CF9112
:100EB0000895CF93DF93C82FD0E0CC0FDD1FCC0F68
:100EC000DD1FC050DE4FE881F98180E019951A825C
:100ED000DF91CF9108951F93CF93DF93C82FD0E078
:100EE000CC0FDD1FCC0FDD1FFE01E050FE4F11E0E7
:100EF0008281811110E0C050DE4FE881F981812F9D
:100F000019951A83DF91CF911F910895E82FF0E092
:100F1000EE0FFF1FEE0FFF1FE050FE4F838108957D
:100F2000582F80910302882391F0581303C027C0E3
:100F3000581771F0282F30E0982F220F331F220FFF
:100F4000331FF901E050FE4F83818111F1CF0895E5
:100F500081508C30B8F49D30A9F0E52FF0E0EE0F11
:100F6000FF1FEE0FFF1FE050FE4F838120503E4FCA
:100F7000D90113968C936383428381E00895815055
:100F80008C3010F080E0089520E030E0E6CFE2E021
:100F9000F2E080E091E090838F5F818334968D3022
:100FA000D1F71092330208958DE092E09093A90456
:100FB0008093A8049093AB048093AA049093A70411
:100FC0008093A60408958091AA049091AB04909315
:100FD000A7048093A60408951092A9041092A8046F
:100FE0008091AA049091AB048234910541F0109253
:100FF000AB041092AA041092A7041092A6040895BC
:101000008DE092E09093A9048093A8042091AA0413
:101010003091AB042234310541F09093AB048093BE
:10102000AA049093A7048093A60408958091A6042F
:101030009091A7048334910530F48091AA04909193
:10104000AB04892B51F482E490E09093AB0480933D
:10105000AA049093A7048093A60408958091A804FD
:101060009091A9049093AB048093AA049093A70451
:101070008093A60408958091A6049091A7040097F8
:1010800089F09C0121503109019741F482E490E0FC
:101090009093A7048093A60481E008953093A70459
:1010A0002093A60480E00895CF93DF93E82FF0E02B
:1010B000EE0FFF1FE455FB4FC081633051F180F00C
:1010C000643009F43BC0653031F007C08C2F03DF7A
:1010D0008C2F1CDFC82FC111F9CFDF91CF9108955C
:1010E000613091F0623031F0F8CF8C2FE2DE8C2F3E
:1010F0000DDFC82FC111F9CFDF91CF9108958C2F4B
:10110000C5DE8C2F03DFC82FC111F9CFDF91CF913E
:101110000895DC2FCC2339F18D2FDDDE8D2FF6DE07
:10112000D82F8111F9CFC6DB8C2FD5DE8C2FEEDEC8
:10113000C82F8111F9CFDF91CF910895DC2FCC23F7
:10114000A9F08D2FC8DE8D2FE1DED82F8111F9CFC8
:10115000B6DB8C2FC0DE8C2FD9DEC82F8111F9CFE2
:10116000DF91CF910895DF91CF91A4CBDF91CF9103
:10117000A6CBE82FF0E0EE0FFF1FE455FB4F618197
:1011800093CF0F931F93CF93DF93162F042F9FEFCF
:10119000980F9B3028F0DF91CF911F910F91089508
:1011A000C82FD0E0CC0FDD1FC455DB4F422F688124
:1011B000812FB6DE882379F318830983DF91CF91DD
:1011C0001F910F910895E3DEECEAF4E011821082A2
:1011D000329684E0E43CF807C9F70895CF93DF9393
:1011E000CDB7DEB7AE014A5F5F4FFA0161917191F1
:1011F000AF0184E392E094D1DF91CF9108958AE426
:1012000092E09F938F93EADF0F900F90089588E20A
:1012100013DA60E080E057D062E081E054D061E012
:1012200082E051D063E083E04ED06FEF78E08DE054
:1012300060DC63ED79E08CE05CDC21E040E06AE0BA
:1012400087E09FDF20E040E06CE08AE09ADF21E069
:1012500043E068E081E095DF20E044E063E082E085
:1012600090CF8AE492E09F938F93B8DF0F900F9016
:10127000089588E2E1D960E081E025D062E081E074
:1012800022D061E082E01FD063E083E01CD061E304
:1012900079E08DE02EDC63ED79E08CE02ADC21E062
:1012A00040E06AE087E06DDF20E040E06CE087E04E
:1012B00068DF21E043E068E081E063DF20E044E0B4
:1012C00063E082E05ECFE82FF0E0EE0FFF1FE35A0D
:1012D000FD4F28E049E0808191812FCC85E692E0A6
:1012E0009F938F937BDF0F900F90089588E2A4D98E
:1012F00060E080E07FD062E081E07CD061E082E06D
:1013000079D063E084E076D063ED79E08CE0F1DBC6
:101310006EE679E08DE0EDDB20E040E06AE08AE017
:1013200030DF20E040E06CE088E02BDF21E043E0AC
:1013300068E081E026DF20E044E063E082E021DF36
:101340007ACD82E892E09F938F9348DF0F900F90C1
:10135000089588E271D960E081E04CD062E081E0DC
:1013600049D061E083E046D063E084E043D063EDA0
:1013700079E08CE0BEDB61EA79E08DE0BADB20E069
:1013800040E06AE087E0FDDE20E040E06CE088E0DD
:10139000F8DE21E043E068E081E0F3DE20E044E0B5
:1013A00063E082E0EECE89E992E09F938F9316DFAF
:1013B00084EA92E09F938F9311DF84EB92E09F93F6
:1013C0008F930CDF8EED92E09F938F9307DF84EF76
:1013D00092E09F938F9302DF8AE093E09F938F9335
:1013E000FDDE8DB79EB70C960FB6F8949EBF0FBE6C
:1013F0008DBF0895E82FF0E0EE0FFF1FEA5EFC4F6F
:1014000028E049E08081918198CB80E293E09F932E
:101410008F93E4DE0F900F90089528E04DE060E098
:1014200084EA94E08ADB28E04DE062E08CE394E01B
:1014300084DB28E04DE061E084ED93E07EDB28E092
:101440004DE063E08CE693E078DB88E2F5D820E0BD
:1014500040E06AE08AE095DE20E040E06CE08BE06E
:1014600090DE21E045E061E083E08BDE20E045E0B6
:101470006BE083E086DE21E043E068E081E081DE2E
:1014800021E044E064E082E07CDED5DC10DA65E057
:101490007AE08DE02ECB84D9A7D98823E9F3B9D897
:1014A000C82F803A29F082E014DBFC018C2F1995BB
:1014B000C9D8F2CF97FB072E16F4009406D077FD1B
:1014C00008D013D007FC05D03EF4909581959F4F2E
:1014D0000895709561957F4F0895EE0FFF1F881F47
:1014E0008BBF0790F691E02D1994AA1BBB1B51E10D
:1014F00007C0AA1FBB1FA617B70710F0A61BB70B84
:10150000881F991F5A95A9F780959095BC01CD0128
:101510000895DC0101C06D9341505040E0F70895FB
:101520005F926F927F928F929F92AF92BF92CF9273
:10153000DF92EF92FF920F931F93CF93DF93CDB77C
:10154000DEB72F970FB6F894DEBF0FBECDBF6C018C
:101550007B018A01DC0117961C921E921697139646
:101560008C9181FFF1C12AE0522EF6019381F7019F
:1015700093FD859193FF81917F01882309F471C0C8
:10158000853239F493FD859193FF81917F018532F6
:1015900021F4B60190E0F1D1E8CF912C612C712CAF
:1015A000FFE1F71508F445C08B32C1F1F0F4803249
:1015B000B9F1833209F43AC0833609F49AC083370B
:1015C00009F4A3C0833509F0C3C0F801A190B1901C
:1015D0008F01692D70E076FC02C06FEF7FEFC501CF
:1015E000B6D14C01689477F871C08D32E1F0803348
:1015F00051F020ED280F2A3048F18E3209F04BC00F
:10160000689476F802C0689470F8F70193FD8591AC
:1016100093FF81917F018111C3CF45C0689471F818
:10162000689472F8F2CF689473F8EFCF689474F806
:10163000ECCF77FC38C020ED280F2A3070F476FE0E
:1016400005C0959C200D1124922EDFCF659C200DA6
:101650001124622E689475F8D8CF8E32E1F476FEAC
:10166000CFCFD60116968D919C912F960FB6F894F8
:10167000DEBF0FBECDBFDF91CF911F910F91FF90C5
:10168000EF90DF90CF90BF90AF909F908F907F9022
:101690006F905F9008958C3619F4689477F8B5CF01
:1016A000883609F4B2CF982F9F7D9554933008F077
:1016B00083CF0C5F1F4F8FE3898388248394912C01
:1016C000AE014F5F5F4F5A01E89477F873FC05C095
:1016D000862D90E08816990630F18114910449F521
:1016E000662009F442CFB60180E290E046D16A94C8
:1016F000F7CFD8018C9189830E5F1F4F8824839484
:10170000912CFE0131965F01DFCFD801AD90BD90E5
:101710008D01692D70E076FC02C06FEF7FEFC5018F
:1017200021D14C01D1CFB60180E290E026D16A945C
:10173000CFCFF50177FC859177FE81915F01B601EE
:1017400090E01BD161106A94F1E08F1A9108C5CF27
:10175000843619F0893609F07DC0F80177FE73C030
:1017600061917191819191918F01272D2F76822E18
:1017700097FF09C090958095709561957F4F8F4F29
:101780009F4F689487F82AE030E0AE014F5F5F4FCB
:101790005A0123D18A19A82EBA2C782C86FE0CC0A7
:1017A000E89470F8A91440F484FE05C082FC03C0DC
:1017B000782D7E7E772EB92C74FEA1C0FE01EA0D35
:1017C000F11D8081803309F093C0872D897E782EAA
:1017D00073FC0EC070FEA1C09A2CB61418F4960CBF
:1017E0009B18B62C862D8B196B1408F480E0B80E6C
:1017F000B61408F094C06B1874FE93C0B60180E371
:1018000090E0BBD072FE08C088E590E071FC02C099
:1018100088E790E0B601B1D0A91408F48FC0AA946B
:10182000B12C9FEFA91AB90ADE0111964D01AA0E3B
:10183000BB1EF50182915F01B60190E09ED08A1433
:101840009B04B9F74DCF61917191072E000C880B65
:10185000990B8ACF872CE89484F82AE030E085370A
:1018600069F0572D597F852E803769F110F588353D
:1018700069F18F3609F0F5CE28E030E0F80187FEF7
:101880002DC081919191A191B1918C879D87AE8757
:10189000BF878F01BE016F5F7F4F5B01AB016C851E
:1018A0007D858E859F8599D08A19A82EE89487F822
:1018B00073CF883709F0D5CE84FE02C0689482F8D1
:1018C00020E130E0DBCF689484F8F6CF74FE03C0EB
:1018D000652F6660862E20E132E0D0CF8191919114
:1018E000AC0160E070E04C875D876E877F87D1CF69
:1018F00072FC02C0B3946CCFB394B39469CF872DBC
:101900008678882309F464CFF5CFB60180E290E0B1
:1019100034D083948614C8F365CF8B2CFBCF612C15
:101920006BCF872D8678882309F476CF8BE271FE02
:1019300080E277FC8DE2B60190E06DCFB60180E3E6
:1019400090E01BD09A9468CF8FEF9FEF8ECEFC0172
:101950000590615070400110D8F7809590958E0FDA
:101960009F1F0895FC016150704001900110D8F74D
:10197000809590958E0F9F1F08950F931F93CF937F
:10198000DF93182F092FEB018B8181FD09C01FEF19
:101990000FEF812F902FDF91CF911F910F9108951D
:1019A00082FF14C02E813F818C819D8128173907C9
:1019B0003CF4E881F981CF010196998388831083F3
:1019C0008E819F8101969F838E83E3CFE885F98581
:1019D000812F1995892BA1F3DACFFA01AA27283094
:1019E00051F1203181F1E8946F936E7F6E5F7F4FEC
:1019F0008F4F9F4FAF4FB1E03ED0B4E03CD0670F68
:101A0000781F891F9A1FA11D680F791F8A1F911DBA
:101A1000A11D6A0F711D811D911DA11D20D009F40A
:101A200068943F912AE0269F11243019305D31934C
:101A3000DEF6CF010895462F4770405D4193B3E035
:101A40000FD0C9F7F6CF462F4F70405D4A3318F0DC
:101A5000495D31FD4052419302D0A9F7EACFB4E08D
:101A6000A6959795879577956795BA95C9F7009745
:101A70006105710508959B01AC010A2E06945795E6
:101A8000479537952795BA95C9F7620F731F841F3D
:101A9000951FA01D0895F894FFCFB202E302E20261
:101AA000E102E002DF02DE02B202DD02DC02DB0262
:101AB000DA02D902D802D602D402D202D002CE0271
:101AC000CC02CA02C802C602B202C402C202C002EA
:101AD000BE02BC02BA02B802B602B402EF02E702CA
:101AE000E702E702F002F102E702F202F302F40277
:061AF000F502F602F70208
:101AF6000B0400000C040000140400001C04000089
:101B0600240400002C040000340400003C040000FF
:101B1600440400004C040000F9030000FF03000029
:101B2600050400000000000200000000F8020000AA
:101B3600000000010201030303035B4B65796D613D
:101B4600703A20636C61737369635D0A00BC012C93
:101B5600017401E4005B4B65796D61703A20417058
:101B6600706C6520322028752F6C2063617365299F
:101B76005D005B4B65796D61703A204170706C65F4
:101B8600203220434150535D0031302047455420D8
:101B960041240D0032302041203D2041534328414D
:101BA60024290D0033302049462041203C20333281
:101BB600205448454E2041243D2243544C2B222B91
:101BC600434852242841202B203634290D00343036
:101BD600203F2227223B41243B2227203D20223B37
:101BE600413A0D0035302049462041203C3E203305
:101BF60020474F544F2031300D00363020454E449B
:101C06000D52554E0D0024034C02DC0294020402D0
:101C16005B4B657962643A20536F6C2D32305D0000
:00000001FF
